{"abi":[{"type":"constructor","inputs":[{"name":"_nft","type":"address","internalType":"address"}],"stateMutability":"nonpayable"},{"type":"receive","stateMutability":"payable"},{"type":"function","name":"DONATION_PERCENT","inputs":[],"outputs":[{"name":"","type":"uint256","internalType":"uint256"}],"stateMutability":"view"},{"type":"function","name":"WINNER_PERCENT","inputs":[],"outputs":[{"name":"","type":"uint256","internalType":"uint256"}],"stateMutability":"view"},{"type":"function","name":"cancelMatch","inputs":[{"name":"matchId","type":"uint256","internalType":"uint256"}],"outputs":[],"stateMutability":"nonpayable"},{"type":"function","name":"charity","inputs":[],"outputs":[{"name":"","type":"address","internalType":"contract Donation"}],"stateMutability":"view"},{"type":"function","name":"claimRefund","inputs":[{"name":"matchId","type":"uint256","internalType":"uint256"}],"outputs":[],"stateMutability":"nonpayable"},{"type":"function","name":"claimReward","inputs":[{"name":"matchId","type":"uint256","internalType":"uint256"}],"outputs":[],"stateMutability":"nonpayable"},{"type":"function","name":"correctPredictions","inputs":[{"name":"","type":"address","internalType":"address"}],"outputs":[{"name":"","type":"uint256","internalType":"uint256"}],"stateMutability":"view"},{"type":"function","name":"createMatch","inputs":[{"name":"teamA","type":"string","internalType":"string"},{"name":"teamB","type":"string","internalType":"string"},{"name":"startTime","type":"uint256","internalType":"uint256"},{"name":"lockTime","type":"uint256","internalType":"uint256"}],"outputs":[{"name":"matchId","type":"uint256","internalType":"uint256"}],"stateMutability":"nonpayable"},{"type":"function","name":"getActiveMatches","inputs":[],"outputs":[{"name":"","type":"uint256[]","internalType":"uint256[]"}],"stateMutability":"view"},{"type":"function","name":"getMatch","inputs":[{"name":"matchId","type":"uint256","internalType":"uint256"}],"outputs":[{"name":"","type":"tuple","internalType":"struct Core.Match","components":[{"name":"matchId","type":"uint256","internalType":"uint256"},{"name":"teamA","type":"string","internalType":"string"},{"name":"teamB","type":"string","internalType":"string"},{"name":"startTime","type":"uint256","internalType":"uint256"},{"name":"lockTime","type":"uint256","internalType":"uint256"},{"name":"status","type":"uint8","internalType":"enum Core.MatchStatus"},{"name":"result","type":"uint8","internalType":"enum Core.PredictionOutcome"},{"name":"totalStaked","type":"uint256","internalType":"uint256"},{"name":"winnerPool","type":"uint256","internalType":"uint256"},{"name":"donationPool","type":"uint256","internalType":"uint256"}]}],"stateMutability":"view"},{"type":"function","name":"getMatchPredictors","inputs":[{"name":"matchId","type":"uint256","internalType":"uint256"}],"outputs":[{"name":"","type":"address[]","internalType":"address[]"}],"stateMutability":"view"},{"type":"function","name":"getUserPrediction","inputs":[{"name":"matchId","type":"uint256","internalType":"uint256"},{"name":"user","type":"address","internalType":"address"}],"outputs":[{"name":"","type":"tuple","internalType":"struct Core.Prediction","components":[{"name":"choice","type":"uint8","internalType":"enum Core.PredictionOutcome"},{"name":"stakeAmount","type":"uint256","internalType":"uint256"},{"name":"timestamp","type":"uint256","internalType":"uint256"},{"name":"claimed","type":"bool","internalType":"bool"}]}],"stateMutability":"view"},{"type":"function","name":"hasPredictedMatch","inputs":[{"name":"","type":"address","internalType":"address"},{"name":"","type":"uint256","internalType":"uint256"}],"outputs":[{"name":"","type":"bool","internalType":"bool"}],"stateMutability":"view"},{"type":"function","name":"matchCounter","inputs":[],"outputs":[{"name":"","type":"uint256","internalType":"uint256"}],"stateMutability":"view"},{"type":"function","name":"matches","inputs":[{"name":"","type":"uint256","internalType":"uint256"}],"outputs":[{"name":"matchId","type":"uint256","internalType":"uint256"},{"name":"teamA","type":"string","internalType":"string"},{"name":"teamB","type":"string","internalType":"string"},{"name":"startTime","type":"uint256","internalType":"uint256"},{"name":"lockTime","type":"uint256","internalType":"uint256"},{"name":"status","type":"uint8","internalType":"enum Core.MatchStatus"},{"name":"result","type":"uint8","internalType":"enum Core.PredictionOutcome"},{"name":"totalStaked","type":"uint256","internalType":"uint256"},{"name":"winnerPool","type":"uint256","internalType":"uint256"},{"name":"donationPool","type":"uint256","internalType":"uint256"}],"stateMutability":"view"},{"type":"function","name":"mintPredictorNft","inputs":[{"name":"matchId","type":"uint256","internalType":"uint256"}],"outputs":[],"stateMutability":"nonpayable"},{"type":"function","name":"nft","inputs":[],"outputs":[{"name":"","type":"address","internalType":"contract RewardNFT"}],"stateMutability":"view"},{"type":"function","name":"owner","inputs":[],"outputs":[{"name":"","type":"address","internalType":"address"}],"stateMutability":"view"},{"type":"function","name":"placePrediction","inputs":[{"name":"matchId","type":"uint256","internalType":"uint256"},{"name":"choice","type":"uint8","internalType":"enum Core.PredictionOutcome"}],"outputs":[],"stateMutability":"payable"},{"type":"function","name":"predictions","inputs":[{"name":"","type":"uint256","internalType":"uint256"},{"name":"","type":"address","internalType":"address"}],"outputs":[{"name":"choice","type":"uint8","internalType":"enum Core.PredictionOutcome"},{"name":"stakeAmount","type":"uint256","internalType":"uint256"},{"name":"timestamp","type":"uint256","internalType":"uint256"},{"name":"claimed","type":"bool","internalType":"bool"}],"stateMutability":"view"},{"type":"function","name":"resolveMatch","inputs":[{"name":"matchId","type":"uint256","internalType":"uint256"},{"name":"result","type":"uint8","internalType":"enum Core.PredictionOutcome"}],"outputs":[],"stateMutability":"nonpayable"},{"type":"function","name":"setDonation","inputs":[{"name":"_donation","type":"address","internalType":"address payable"}],"outputs":[],"stateMutability":"nonpayable"},{"type":"function","name":"upgradeNft","inputs":[{"name":"tokenId","type":"uint256","internalType":"uint256"}],"outputs":[],"stateMutability":"nonpayable"},{"type":"event","name":"MatchCancelled","inputs":[{"name":"matchId","type":"uint256","indexed":true,"internalType":"uint256"}],"anonymous":false},{"type":"event","name":"MatchCreated","inputs":[{"name":"matchId","type":"uint256","indexed":true,"internalType":"uint256"},{"name":"teamA","type":"string","indexed":false,"internalType":"string"},{"name":"teamB","type":"string","indexed":false,"internalType":"string"},{"name":"startTime","type":"uint256","indexed":false,"internalType":"uint256"},{"name":"lockTime","type":"uint256","indexed":false,"internalType":"uint256"}],"anonymous":false},{"type":"event","name":"MatchResolved","inputs":[{"name":"matchId","type":"uint256","indexed":true,"internalType":"uint256"},{"name":"result","type":"uint8","indexed":false,"internalType":"enum Core.PredictionOutcome"},{"name":"donationAmount","type":"uint256","indexed":false,"internalType":"uint256"},{"name":"winnerPool","type":"uint256","indexed":false,"internalType":"uint256"}],"anonymous":false},{"type":"event","name":"PredictionPlaced","inputs":[{"name":"predictor","type":"address","indexed":true,"internalType":"address"},{"name":"matchId","type":"uint256","indexed":true,"internalType":"uint256"},{"name":"stakeAmount","type":"uint256","indexed":false,"internalType":"uint256"}],"anonymous":false},{"type":"event","name":"RefundClaimed","inputs":[{"name":"user","type":"address","indexed":true,"internalType":"address"},{"name":"matchId","type":"uint256","indexed":true,"internalType":"uint256"},{"name":"amount","type":"uint256","indexed":false,"internalType":"uint256"}],"anonymous":false},{"type":"event","name":"RewardClaimed","inputs":[{"name":"user","type":"address","indexed":true,"internalType":"address"},{"name":"matchId","type":"uint256","indexed":true,"internalType":"uint256"},{"name":"reward","type":"uint256","indexed":false,"internalType":"uint256"}],"anonymous":false},{"type":"error","name":"ReentrancyGuardReentrantCall","inputs":[]}],"bytecode":{"object":"0x608060405234801561000f575f5ffd5b5060405161455a38038061455a8339818101604052810190610031919061016a565b600161004f6100446100da60201b60201c565b61010360201b60201c565b5f0181905550335f5f6101000a81548173ffffffffffffffffffffffffffffffffffffffff021916908373ffffffffffffffffffffffffffffffffffffffff1602179055508060025f6101000a81548173ffffffffffffffffffffffffffffffffffffffff021916908373ffffffffffffffffffffffffffffffffffffffff16021790555050610195565b5f7f9b779b17422d0df92223018b32b4d1fa46e071723d6817e2486d003becc55f005f1b905090565b5f819050919050565b5f5ffd5b5f73ffffffffffffffffffffffffffffffffffffffff82169050919050565b5f61013982610110565b9050919050565b6101498161012f565b8114610153575f5ffd5b50565b5f8151905061016481610140565b92915050565b5f6020828403121561017f5761017e61010c565b5b5f61018c84828501610156565b91505092915050565b6143b8806101a25f395ff3fe608060405260043610610143575f3560e01c806363c3efb7116100b5578063935146d01161006e578063935146d01461047a578063a6e2a050146104b6578063ae169a50146104f2578063d02c8cdf1461051a578063eafc5e4314610542578063f113ebcc1461056a5761014a565b806363c3efb71461035b57806368e432b2146103835780636ac28cb3146103ab5780638da5cb5b146103e757806392b108d014610411578063934aa023146104505761014a565b80633d092b3d116101075780633d092b3d1461023457806345a7d901146102705780634768d4ef1461029a57806347ccca02146102df5780635531407b146103095780635b7baf64146103335761014a565b806301fd19511461014e57806302453529146101785780631a9d011a146101b457806320d54ecf146101f057806332cd69fa146102185761014a565b3661014a57005b5f5ffd5b348015610159575f5ffd5b50610162610594565b60405161016f9190612846565b60405180910390f35b348015610183575f5ffd5b5061019e600480360381019061019991906128eb565b61059a565b6040516101ab9190612943565b60405180910390f35b3480156101bf575f5ffd5b506101da60048036038101906101d5919061295c565b6105c4565b6040516101e79190612a3e565b60405180910390f35b3480156101fb575f5ffd5b5061021660048036038101906102119190612a81565b610660565b005b610232600480360381019061022d9190612a81565b610996565b005b34801561023f575f5ffd5b5061025a6004803603810190610255919061295c565b610d3c565b6040516102679190612cd5565b60405180910390f35b34801561027b575f5ffd5b50610284610f43565b6040516102919190612846565b60405180910390f35b3480156102a5575f5ffd5b506102c060048036038101906102bb919061295c565b610f48565b6040516102d69a99989796959493929190612d5b565b60405180910390f35b3480156102ea575f5ffd5b506102f36110bd565b6040516103009190612e5e565b60405180910390f35b348015610314575f5ffd5b5061031d6110e2565b60405161032a9190612f1f565b60405180910390f35b34801561033e575f5ffd5b506103596004803603810190610354919061295c565b611259565b005b348015610366575f5ffd5b50610381600480360381019061037c919061295c565b611501565b005b34801561038e575f5ffd5b506103a960048036038101906103a49190612f7a565b61159d565b005b3480156103b6575f5ffd5b506103d160048036038101906103cc9190612fa5565b611677565b6040516103de9190613045565b60405180910390f35b3480156103f2575f5ffd5b506103fb611745565b604051610408919061306d565b60405180910390f35b34801561041c575f5ffd5b5061043760048036038101906104329190612fa5565b611769565b6040516104479493929190613086565b60405180910390f35b34801561045b575f5ffd5b506104646117b8565b60405161047191906130fa565b60405180910390f35b348015610485575f5ffd5b506104a0600480360381019061049b9190613174565b6117dd565b6040516104ad9190612846565b60405180910390f35b3480156104c1575f5ffd5b506104dc60048036038101906104d79190613217565b611b63565b6040516104e99190612846565b60405180910390f35b3480156104fd575f5ffd5b506105186004803603810190610513919061295c565b611b78565b005b348015610525575f5ffd5b50610540600480360381019061053b919061295c565b611f42565b005b34801561054d575f5ffd5b506105686004803603810190610563919061295c565b611fcc565b005b348015610575575f5ffd5b5061057e6122f0565b60405161058b9190612846565b60405180910390f35b60035481565b6006602052815f5260405f20602052805f5260405f205f915091509054906101000a900460ff1681565b606060075f8381526020019081526020015f2080548060200260200160405190810160405280929190818152602001828054801561065457602002820191905f5260205f20905b815f9054906101000a900473ffffffffffffffffffffffffffffffffffffffff1673ffffffffffffffffffffffffffffffffffffffff168152602001906001019080831161060b575b50505050509050919050565b6106686122f5565b8161067281612385565b8261067c816123de565b60045f8581526020019081526020015f20600301544210156106d3576040517f08c379a00000000000000000000000000000000000000000000000000000000081526004016106ca9061328c565b60405180910390fd5b5f60038111156106e6576106e5612b3e565b5b8360038111156106f9576106f8612b3e565b5b03610739576040517f08c379a0000000000000000000000000000000000000000000000000000000008152600401610730906132f4565b60405180910390fd5b5f60045f8681526020019081526020015f2090506001816005015f6101000a81548160ff0219169083600281111561077457610773612b3e565b5b0217905550838160050160016101000a81548160ff021916908360038111156107a05761079f612b3e565b5b02179055505f6064604183600601546107b9919061333f565b6107c391906133ad565b90505f6064602384600601546107d9919061333f565b6107e391906133ad565b90508183600801819055508083600701819055505f821115610951575f60015f9054906101000a900473ffffffffffffffffffffffffffffffffffffffff1673ffffffffffffffffffffffffffffffffffffffff16836040516108459061340a565b5f6040518083038185875af1925050503d805f811461087f576040519150601f19603f3d011682016040523d82523d5f602084013e610884565b606091505b50509050806108c8576040517f08c379a00000000000000000000000000000000000000000000000000000000081526004016108bf90613468565b60405180910390fd5b60015f9054906101000a900473ffffffffffffffffffffffffffffffffffffffff1673ffffffffffffffffffffffffffffffffffffffff1663acbc61ab846040518263ffffffff1660e01b81526004016109229190612846565b5f604051808303815f87803b158015610939575f5ffd5b505af115801561094b573d5f5f3e3d5ffd5b50505050505b867f44bb92a6eff3306c2c3b7967c1f46d979b2d8a4b0568ef084ef522a195d6e0da87848460405161098593929190613486565b60405180910390a250505050505050565b61099e612467565b816109a881612385565b826109b2816123de565b836109bc81612489565b5f34116109fe576040517f08c379a00000000000000000000000000000000000000000000000000000000081526004016109f590613505565b60405180910390fd5b5f6003811115610a1157610a10612b3e565b5b846003811115610a2457610a23612b3e565b5b03610a64576040517f08c379a0000000000000000000000000000000000000000000000000000000008152600401610a5b9061356d565b60405180910390fd5b60065f3373ffffffffffffffffffffffffffffffffffffffff1673ffffffffffffffffffffffffffffffffffffffff1681526020019081526020015f205f8681526020019081526020015f205f9054906101000a900460ff1615610afd576040517f08c379a0000000000000000000000000000000000000000000000000000000008152600401610af4906135d5565b60405180910390fd5b6040518060800160405280856003811115610b1b57610b1a612b3e565b5b81526020013481526020014281526020015f151581525060055f8781526020019081526020015f205f3373ffffffffffffffffffffffffffffffffffffffff1673ffffffffffffffffffffffffffffffffffffffff1681526020019081526020015f205f820151815f015f6101000a81548160ff02191690836003811115610ba657610ba5612b3e565b5b021790555060208201518160010155604082015181600201556060820151816003015f6101000a81548160ff021916908315150217905550905050600160065f3373ffffffffffffffffffffffffffffffffffffffff1673ffffffffffffffffffffffffffffffffffffffff1681526020019081526020015f205f8781526020019081526020015f205f6101000a81548160ff02191690831515021790555060075f8681526020019081526020015f2033908060018154018082558091505060019003905f5260205f20015f9091909190916101000a81548173ffffffffffffffffffffffffffffffffffffffff021916908373ffffffffffffffffffffffffffffffffffffffff1602179055503460045f8781526020019081526020015f206006015f828254610cd791906135f3565b92505081905550843373ffffffffffffffffffffffffffffffffffffffff167f0ac0e25c499a735c96d3e42bcbff40a9ee6853f3367a67701104639d0bf1142034604051610d259190612846565b60405180910390a3505050610d386124e2565b5050565b610d44612787565b81610d4e81612385565b60045f8481526020019081526020015f20604051806101400160405290815f8201548152602001600182018054610d8490613653565b80601f0160208091040260200160405190810160405280929190818152602001828054610db090613653565b8015610dfb5780601f10610dd257610100808354040283529160200191610dfb565b820191905f5260205f20905b815481529060010190602001808311610dde57829003601f168201915b50505050508152602001600282018054610e1490613653565b80601f0160208091040260200160405190810160405280929190818152602001828054610e4090613653565b8015610e8b5780601f10610e6257610100808354040283529160200191610e8b565b820191905f5260205f20905b815481529060010190602001808311610e6e57829003601f168201915b505050505081526020016003820154815260200160048201548152602001600582015f9054906101000a900460ff166002811115610ecc57610ecb612b3e565b5b6002811115610ede57610edd612b3e565b5b81526020016005820160019054906101000a900460ff166003811115610f0757610f06612b3e565b5b6003811115610f1957610f18612b3e565b5b81526020016006820154815260200160078201548152602001600882015481525050915050919050565b604181565b6004602052805f5260405f205f91509050805f015490806001018054610f6d90613653565b80601f0160208091040260200160405190810160405280929190818152602001828054610f9990613653565b8015610fe45780601f10610fbb57610100808354040283529160200191610fe4565b820191905f5260205f20905b815481529060010190602001808311610fc757829003601f168201915b505050505090806002018054610ff990613653565b80601f016020809104026020016040519081016040528092919081815260200182805461102590613653565b80156110705780601f1061104757610100808354040283529160200191611070565b820191905f5260205f20905b81548152906001019060200180831161105357829003601f168201915b505050505090806003015490806004015490806005015f9054906101000a900460ff16908060050160019054906101000a900460ff1690806006015490806007015490806008015490508a565b60025f9054906101000a900473ffffffffffffffffffffffffffffffffffffffff1681565b60605f5f90505f600190505b6003548111611164575f600281111561110a57611109612b3e565b5b60045f8381526020019081526020015f206005015f9054906101000a900460ff16600281111561113d5761113c612b3e565b5b0361115157818061114d90613683565b9250505b808061115c90613683565b9150506110ee565b505f8167ffffffffffffffff8111156111805761117f6136ca565b5b6040519080825280602002602001820160405280156111ae5781602001602082028036833780820191505090505b5090505f5f90505f600190505b600354811161124f575f60028111156111d7576111d6612b3e565b5b60045f8381526020019081526020015f206005015f9054906101000a900460ff16600281111561120a57611209612b3e565b5b0361123c578083838061121c90613683565b94508151811061122f5761122e6136f7565b5b6020026020010181815250505b808061124790613683565b9150506111bb565b5081935050505090565b611261612467565b8061126b81612385565b60028081111561127e5761127d612b3e565b5b60045f8481526020019081526020015f206005015f9054906101000a900460ff1660028111156112b1576112b0612b3e565b5b146112f1576040517f08c379a00000000000000000000000000000000000000000000000000000000081526004016112e89061376e565b60405180910390fd5b5f60055f8481526020019081526020015f205f3373ffffffffffffffffffffffffffffffffffffffff1673ffffffffffffffffffffffffffffffffffffffff1681526020019081526020015f2090505f816001015411611386576040517f08c379a000000000000000000000000000000000000000000000000000000000815260040161137d906137d6565b60405180910390fd5b806003015f9054906101000a900460ff16156113d7576040517f08c379a00000000000000000000000000000000000000000000000000000000081526004016113ce9061383e565b60405180910390fd5b5f816001015490506001826003015f6101000a81548160ff0219169083151502179055505f3373ffffffffffffffffffffffffffffffffffffffff16826040516114209061340a565b5f6040518083038185875af1925050503d805f811461145a576040519150601f19603f3d011682016040523d82523d5f602084013e61145f565b606091505b50509050806114a3576040517f08c379a000000000000000000000000000000000000000000000000000000000815260040161149a906138a6565b60405180910390fd5b843373ffffffffffffffffffffffffffffffffffffffff167f17c1d890f3ffba4991a771a0b55802a1eff3159d0cce950fb68d1360530393d9846040516114ea9190612846565b60405180910390a3505050506114fe6124e2565b50565b611509612467565b60025f9054906101000a900473ffffffffffffffffffffffffffffffffffffffff1673ffffffffffffffffffffffffffffffffffffffff1663e9cb499b33836040518363ffffffff1660e01b81526004016115659291906138c4565b5f604051808303815f87803b15801561157c575f5ffd5b505af115801561158e573d5f5f3e3d5ffd5b5050505061159a6124e2565b50565b6115a56122f5565b5f73ffffffffffffffffffffffffffffffffffffffff1660015f9054906101000a900473ffffffffffffffffffffffffffffffffffffffff1673ffffffffffffffffffffffffffffffffffffffff1614611634576040517f08c379a000000000000000000000000000000000000000000000000000000000815260040161162b90613935565b60405180910390fd5b8060015f6101000a81548173ffffffffffffffffffffffffffffffffffffffff021916908373ffffffffffffffffffffffffffffffffffffffff16021790555050565b61167f6127f6565b60055f8481526020019081526020015f205f8373ffffffffffffffffffffffffffffffffffffffff1673ffffffffffffffffffffffffffffffffffffffff1681526020019081526020015f206040518060800160405290815f82015f9054906101000a900460ff1660038111156116f9576116f8612b3e565b5b600381111561170b5761170a612b3e565b5b81526020016001820154815260200160028201548152602001600382015f9054906101000a900460ff161515151581525050905092915050565b5f5f9054906101000a900473ffffffffffffffffffffffffffffffffffffffff1681565b6005602052815f5260405f20602052805f5260405f205f9150915050805f015f9054906101000a900460ff1690806001015490806002015490806003015f9054906101000a900460ff16905084565b60015f9054906101000a900473ffffffffffffffffffffffffffffffffffffffff1681565b5f6117e66122f5565b428311611828576040517f08c379a000000000000000000000000000000000000000000000000000000000815260040161181f9061399d565b60405180910390fd5b82821061186a576040517f08c379a000000000000000000000000000000000000000000000000000000000815260040161186190613a05565b60405180910390fd5b4282116118ac576040517f08c379a00000000000000000000000000000000000000000000000000000000081526004016118a390613a6d565b60405180910390fd5b5f87879050116118f1576040517f08c379a00000000000000000000000000000000000000000000000000000000081526004016118e890613ad5565b60405180910390fd5b5f8585905011611936576040517f08c379a000000000000000000000000000000000000000000000000000000000815260040161192d90613b3d565b60405180910390fd5b60035f815461194490613683565b919050819055905060405180610140016040528082815260200188888080601f0160208091040260200160405190810160405280939291908181526020018383808284375f81840152601f19601f82011690508083019250505050505050815260200186868080601f0160208091040260200160405190810160405280939291908181526020018383808284375f81840152601f19601f8201169050808301925050505050505081526020018481526020018381526020015f6002811115611a0f57611a0e612b3e565b5b81526020015f6003811115611a2757611a26612b3e565b5b81526020015f81526020015f81526020015f81525060045f8381526020019081526020015f205f820151815f01556020820151816001019081611a6a9190613cf2565b506040820151816002019081611a809190613cf2565b50606082015181600301556080820151816004015560a0820151816005015f6101000a81548160ff02191690836002811115611abf57611abe612b3e565b5b021790555060c08201518160050160016101000a81548160ff02191690836003811115611aef57611aee612b3e565b5b021790555060e0820151816006015561010082015181600701556101208201518160080155905050807ffda0f059ce55b22bb6671bc1c57cc73f0420271c728de69b966562e733d8175f888888888888604051611b5196959493929190613dfb565b60405180910390a29695505050505050565b6008602052805f5260405f205f915090505481565b611b80612467565b80611b8a81612385565b60016002811115611b9e57611b9d612b3e565b5b60045f8481526020019081526020015f206005015f9054906101000a900460ff166002811115611bd157611bd0612b3e565b5b14611c11576040517f08c379a0000000000000000000000000000000000000000000000000000000008152600401611c0890613e9a565b60405180910390fd5b5f60055f8481526020019081526020015f205f3373ffffffffffffffffffffffffffffffffffffffff1673ffffffffffffffffffffffffffffffffffffffff1681526020019081526020015f2090505f816001015411611ca6576040517f08c379a0000000000000000000000000000000000000000000000000000000008152600401611c9d906137d6565b60405180910390fd5b806003015f9054906101000a900460ff1615611cf7576040517f08c379a0000000000000000000000000000000000000000000000000000000008152600401611cee90613f02565b60405180910390fd5b60045f8481526020019081526020015f2060050160019054906101000a900460ff166003811115611d2b57611d2a612b3e565b5b815f015f9054906101000a900460ff166003811115611d4d57611d4c612b3e565b5b14611d8d576040517f08c379a0000000000000000000000000000000000000000000000000000000008152600401611d8490613f6a565b60405180910390fd5b6001816003015f6101000a81548160ff021916908315150217905550600160085f3373ffffffffffffffffffffffffffffffffffffffff1673ffffffffffffffffffffffffffffffffffffffff1681526020019081526020015f205f828254611df691906135f3565b925050819055505f611e07846124fc565b90505f81836001015460045f8881526020019081526020015f2060070154611e2f919061333f565b611e3991906133ad565b90505f3373ffffffffffffffffffffffffffffffffffffffff1682604051611e609061340a565b5f6040518083038185875af1925050503d805f8114611e9a576040519150601f19603f3d011682016040523d82523d5f602084013e611e9f565b606091505b5050905080611ee3576040517f08c379a0000000000000000000000000000000000000000000000000000000008152600401611eda90613fd2565b60405180910390fd5b853373ffffffffffffffffffffffffffffffffffffffff167ff01da32686223933d8a18a391060918c7f11a3648639edd87ae013e2e273174384604051611f2a9190612846565b60405180910390a35050505050611f3f6124e2565b50565b611f4a6122f5565b80611f5481612385565b81611f5e816123de565b600260045f8581526020019081526020015f206005015f6101000a81548160ff02191690836002811115611f9557611f94612b3e565b5b0217905550827f700135b4fe8746e2d2c85a9baa43c62887740aebfeb3a439f71a083fe5d5675960405160405180910390a2505050565b611fd4612467565b80611fde81612385565b60016002811115611ff257611ff1612b3e565b5b60045f8481526020019081526020015f206005015f9054906101000a900460ff16600281111561202557612024612b3e565b5b14612065576040517f08c379a000000000000000000000000000000000000000000000000000000000815260040161205c9061403a565b60405180910390fd5b5f60055f8481526020019081526020015f205f3373ffffffffffffffffffffffffffffffffffffffff1673ffffffffffffffffffffffffffffffffffffffff1681526020019081526020015f2090505f8160010154116120fa576040517f08c379a00000000000000000000000000000000000000000000000000000000081526004016120f1906137d6565b60405180910390fd5b60045f8481526020019081526020015f2060050160019054906101000a900460ff16600381111561212e5761212d612b3e565b5b815f015f9054906101000a900460ff1660038111156121505761214f612b3e565b5b14612190576040517f08c379a0000000000000000000000000000000000000000000000000000000008152600401612187906140a2565b60405180910390fd5b5f60085f3373ffffffffffffffffffffffffffffffffffffffff1673ffffffffffffffffffffffffffffffffffffffff1681526020019081526020015f205490505f600a82106121e35760039050612242565b600582106121f45760029050612241565b600182106122055760019050612240565b6040517f08c379a00000000000000000000000000000000000000000000000000000000081526004016122379061410a565b60405180910390fd5b5b5b60025f9054906101000a900473ffffffffffffffffffffffffffffffffffffffff1673ffffffffffffffffffffffffffffffffffffffff1663f944c31c3383856040518463ffffffff1660e01b81526004016122a09392919061416e565b6020604051808303815f875af11580156122bc573d5f5f3e3d5ffd5b505050506040513d601f19601f820116820180604052508101906122e091906141b7565b50505050506122ed6124e2565b50565b602381565b5f5f9054906101000a900473ffffffffffffffffffffffffffffffffffffffff1673ffffffffffffffffffffffffffffffffffffffff163373ffffffffffffffffffffffffffffffffffffffff1614612383576040517f08c379a000000000000000000000000000000000000000000000000000000000815260040161237a9061422c565b60405180910390fd5b565b5f60045f8381526020019081526020015f2060030154036123db576040517f08c379a00000000000000000000000000000000000000000000000000000000081526004016123d290614294565b60405180910390fd5b50565b5f60028111156123f1576123f0612b3e565b5b60045f8381526020019081526020015f206005015f9054906101000a900460ff16600281111561242457612423612b3e565b5b14612464576040517f08c379a000000000000000000000000000000000000000000000000000000000815260040161245b906142fc565b60405180910390fd5b50565b61246f6126f8565b600261248161247c612739565b612762565b5f0181905550565b60045f8281526020019081526020015f206004015442106124df576040517f08c379a00000000000000000000000000000000000000000000000000000000081526004016124d690614364565b60405180910390fd5b50565b60016124f46124ef612739565b612762565b5f0181905550565b5f5f60045f8481526020019081526020015f2060050160019054906101000a900460ff1690505f60075f8581526020019081526020015f208054806020026020016040519081016040528092919081815260200182805480156125b157602002820191905f5260205f20905b815f9054906101000a900473ffffffffffffffffffffffffffffffffffffffff1673ffffffffffffffffffffffffffffffffffffffff1681526020019060010190808311612568575b505050505090505f5f90505b81518110156126f0575f60055f8781526020019081526020015f205f8484815181106125ec576125eb6136f7565b5b602002602001015173ffffffffffffffffffffffffffffffffffffffff1673ffffffffffffffffffffffffffffffffffffffff1681526020019081526020015f206040518060800160405290815f82015f9054906101000a900460ff16600381111561265b5761265a612b3e565b5b600381111561266d5761266c612b3e565b5b81526020016001820154815260200160028201548152602001600382015f9054906101000a900460ff16151515158152505090508360038111156126b4576126b3612b3e565b5b815f015160038111156126ca576126c9612b3e565b5b036126e2578060200151856126df91906135f3565b94505b5080806001019150506125bd565b505050919050565b61270061276b565b15612737576040517f3ee5aeb500000000000000000000000000000000000000000000000000000000815260040160405180910390fd5b565b5f7f9b779b17422d0df92223018b32b4d1fa46e071723d6817e2486d003becc55f005f1b905090565b5f819050919050565b5f600261277e612779612739565b612762565b5f015414905090565b6040518061014001604052805f815260200160608152602001606081526020015f81526020015f81526020015f60028111156127c6576127c5612b3e565b5b81526020015f60038111156127de576127dd612b3e565b5b81526020015f81526020015f81526020015f81525090565b60405180608001604052805f600381111561281457612813612b3e565b5b81526020015f81526020015f81526020015f151581525090565b5f819050919050565b6128408161282e565b82525050565b5f6020820190506128595f830184612837565b92915050565b5f5ffd5b5f5ffd5b5f73ffffffffffffffffffffffffffffffffffffffff82169050919050565b5f61289082612867565b9050919050565b6128a081612886565b81146128aa575f5ffd5b50565b5f813590506128bb81612897565b92915050565b6128ca8161282e565b81146128d4575f5ffd5b50565b5f813590506128e5816128c1565b92915050565b5f5f604083850312156129015761290061285f565b5b5f61290e858286016128ad565b925050602061291f858286016128d7565b9150509250929050565b5f8115159050919050565b61293d81612929565b82525050565b5f6020820190506129565f830184612934565b92915050565b5f602082840312156129715761297061285f565b5b5f61297e848285016128d7565b91505092915050565b5f81519050919050565b5f82825260208201905092915050565b5f819050602082019050919050565b6129b981612886565b82525050565b5f6129ca83836129b0565b60208301905092915050565b5f602082019050919050565b5f6129ec82612987565b6129f68185612991565b9350612a01836129a1565b805f5b83811015612a31578151612a1888826129bf565b9750612a23836129d6565b925050600181019050612a04565b5085935050505092915050565b5f6020820190508181035f830152612a5681846129e2565b905092915050565b60048110612a6a575f5ffd5b50565b5f81359050612a7b81612a5e565b92915050565b5f5f60408385031215612a9757612a9661285f565b5b5f612aa4858286016128d7565b9250506020612ab585828601612a6d565b9150509250929050565b612ac88161282e565b82525050565b5f81519050919050565b5f82825260208201905092915050565b8281835e5f83830152505050565b5f601f19601f8301169050919050565b5f612b1082612ace565b612b1a8185612ad8565b9350612b2a818560208601612ae8565b612b3381612af6565b840191505092915050565b7f4e487b71000000000000000000000000000000000000000000000000000000005f52602160045260245ffd5b60038110612b7c57612b7b612b3e565b5b50565b5f819050612b8c82612b6b565b919050565b5f612b9b82612b7f565b9050919050565b612bab81612b91565b82525050565b60048110612bc257612bc1612b3e565b5b50565b5f819050612bd282612bb1565b919050565b5f612be182612bc5565b9050919050565b612bf181612bd7565b82525050565b5f61014083015f830151612c0d5f860182612abf565b5060208301518482036020860152612c258282612b06565b91505060408301518482036040860152612c3f8282612b06565b9150506060830151612c546060860182612abf565b506080830151612c676080860182612abf565b5060a0830151612c7a60a0860182612ba2565b5060c0830151612c8d60c0860182612be8565b5060e0830151612ca060e0860182612abf565b50610100830151612cb5610100860182612abf565b50610120830151612cca610120860182612abf565b508091505092915050565b5f6020820190508181035f830152612ced8184612bf7565b905092915050565b5f82825260208201905092915050565b5f612d0f82612ace565b612d198185612cf5565b9350612d29818560208601612ae8565b612d3281612af6565b840191505092915050565b612d4681612b91565b82525050565b612d5581612bd7565b82525050565b5f61014082019050612d6f5f83018d612837565b8181036020830152612d81818c612d05565b90508181036040830152612d95818b612d05565b9050612da4606083018a612837565b612db16080830189612837565b612dbe60a0830188612d3d565b612dcb60c0830187612d4c565b612dd860e0830186612837565b612de6610100830185612837565b612df4610120830184612837565b9b9a5050505050505050505050565b5f819050919050565b5f612e26612e21612e1c84612867565b612e03565b612867565b9050919050565b5f612e3782612e0c565b9050919050565b5f612e4882612e2d565b9050919050565b612e5881612e3e565b82525050565b5f602082019050612e715f830184612e4f565b92915050565b5f81519050919050565b5f82825260208201905092915050565b5f819050602082019050919050565b5f612eab8383612abf565b60208301905092915050565b5f602082019050919050565b5f612ecd82612e77565b612ed78185612e81565b9350612ee283612e91565b805f5b83811015612f12578151612ef98882612ea0565b9750612f0483612eb7565b925050600181019050612ee5565b5085935050505092915050565b5f6020820190508181035f830152612f378184612ec3565b905092915050565b5f612f4982612867565b9050919050565b612f5981612f3f565b8114612f63575f5ffd5b50565b5f81359050612f7481612f50565b92915050565b5f60208284031215612f8f57612f8e61285f565b5b5f612f9c84828501612f66565b91505092915050565b5f5f60408385031215612fbb57612fba61285f565b5b5f612fc8858286016128d7565b9250506020612fd9858286016128ad565b9150509250929050565b612fec81612929565b82525050565b608082015f8201516130065f850182612be8565b5060208201516130196020850182612abf565b50604082015161302c6040850182612abf565b50606082015161303f6060850182612fe3565b50505050565b5f6080820190506130585f830184612ff2565b92915050565b61306781612886565b82525050565b5f6020820190506130805f83018461305e565b92915050565b5f6080820190506130995f830187612d4c565b6130a66020830186612837565b6130b36040830185612837565b6130c06060830184612934565b95945050505050565b5f6130d382612e0c565b9050919050565b5f6130e4826130c9565b9050919050565b6130f4816130da565b82525050565b5f60208201905061310d5f8301846130eb565b92915050565b5f5ffd5b5f5ffd5b5f5ffd5b5f5f83601f84011261313457613133613113565b5b8235905067ffffffffffffffff81111561315157613150613117565b5b60208301915083600182028301111561316d5761316c61311b565b5b9250929050565b5f5f5f5f5f5f6080878903121561318e5761318d61285f565b5b5f87013567ffffffffffffffff8111156131ab576131aa612863565b5b6131b789828a0161311f565b9650965050602087013567ffffffffffffffff8111156131da576131d9612863565b5b6131e689828a0161311f565b945094505060406131f989828a016128d7565b925050606061320a89828a016128d7565b9150509295509295509295565b5f6020828403121561322c5761322b61285f565b5b5f613239848285016128ad565b91505092915050565b7f4d6174636820686173206e6f74207374617274656420796574000000000000005f82015250565b5f613276601983612cf5565b915061328182613242565b602082019050919050565b5f6020820190508181035f8301526132a38161326a565b9050919050565b7f496e76616c696420726573756c740000000000000000000000000000000000005f82015250565b5f6132de600e83612cf5565b91506132e9826132aa565b602082019050919050565b5f6020820190508181035f83015261330b816132d2565b9050919050565b7f4e487b71000000000000000000000000000000000000000000000000000000005f52601160045260245ffd5b5f6133498261282e565b91506133548361282e565b92508282026133628161282e565b9150828204841483151761337957613378613312565b5b5092915050565b7f4e487b71000000000000000000000000000000000000000000000000000000005f52601260045260245ffd5b5f6133b78261282e565b91506133c28361282e565b9250826133d2576133d1613380565b5b828204905092915050565b5f81905092915050565b50565b5f6133f55f836133dd565b9150613400826133e7565b5f82019050919050565b5f613414826133ea565b9150819050919050565b7f45544820666f727761726420746f20446f6e6174696f6e206661696c656400005f82015250565b5f613452601e83612cf5565b915061345d8261341e565b602082019050919050565b5f6020820190508181035f83015261347f81613446565b9050919050565b5f6060820190506134995f830186612d4c565b6134a66020830185612837565b6134b36040830184612837565b949350505050565b7f5374616b65206d7573742062652067726561746572207468616e2030000000005f82015250565b5f6134ef601c83612cf5565b91506134fa826134bb565b602082019050919050565b5f6020820190508181035f83015261351c816134e3565b9050919050565b7f43686f6f736520612076616c6964206f7574636f6d65000000000000000000005f82015250565b5f613557601683612cf5565b915061356282613523565b602082019050919050565b5f6020820190508181035f8301526135848161354b565b9050919050565b7f416c7265616479207072656469637465642074686973206d61746368000000005f82015250565b5f6135bf601c83612cf5565b91506135ca8261358b565b602082019050919050565b5f6020820190508181035f8301526135ec816135b3565b9050919050565b5f6135fd8261282e565b91506136088361282e565b92508282019050808211156136205761361f613312565b5b92915050565b7f4e487b71000000000000000000000000000000000000000000000000000000005f52602260045260245ffd5b5f600282049050600182168061366a57607f821691505b60208210810361367d5761367c613626565b5b50919050565b5f61368d8261282e565b91507fffffffffffffffffffffffffffffffffffffffffffffffffffffffffffffffff82036136bf576136be613312565b5b600182019050919050565b7f4e487b71000000000000000000000000000000000000000000000000000000005f52604160045260245ffd5b7f4e487b71000000000000000000000000000000000000000000000000000000005f52603260045260245ffd5b7f4d6174636820776173206e6f742063616e63656c6c65640000000000000000005f82015250565b5f613758601783612cf5565b915061376382613724565b602082019050919050565b5f6020820190508181035f8301526137858161374c565b9050919050565b7f4e6f2070726564696374696f6e20666f756e64000000000000000000000000005f82015250565b5f6137c0601383612cf5565b91506137cb8261378c565b602082019050919050565b5f6020820190508181035f8301526137ed816137b4565b9050919050565b7f416c726561647920726566756e646564000000000000000000000000000000005f82015250565b5f613828601083612cf5565b9150613833826137f4565b602082019050919050565b5f6020820190508181035f8301526138558161381c565b9050919050565b7f526566756e64206661696c6564000000000000000000000000000000000000005f82015250565b5f613890600d83612cf5565b915061389b8261385c565b602082019050919050565b5f6020820190508181035f8301526138bd81613884565b9050919050565b5f6040820190506138d75f83018561305e565b6138e46020830184612837565b9392505050565b7f416c7265616479207365740000000000000000000000000000000000000000005f82015250565b5f61391f600b83612cf5565b915061392a826138eb565b602082019050919050565b5f6020820190508181035f83015261394c81613913565b9050919050565b7f53746172742074696d65206d75737420626520696e20667574757265000000005f82015250565b5f613987601c83612cf5565b915061399282613953565b602082019050919050565b5f6020820190508181035f8301526139b48161397b565b9050919050565b7f4c6f636b206d757374206265206265666f7265206d61746368207374617274735f82015250565b5f6139ef602083612cf5565b91506139fa826139bb565b602082019050919050565b5f6020820190508181035f830152613a1c816139e3565b9050919050565b7f4c6f636b2074696d6520616c72656164792070617373656400000000000000005f82015250565b5f613a57601883612cf5565b9150613a6282613a23565b602082019050919050565b5f6020820190508181035f830152613a8481613a4b565b9050919050565b7f5465616d2041206e616d652072657175697265640000000000000000000000005f82015250565b5f613abf601483612cf5565b9150613aca82613a8b565b602082019050919050565b5f6020820190508181035f830152613aec81613ab3565b9050919050565b7f5465616d2042206e616d652072657175697265640000000000000000000000005f82015250565b5f613b27601483612cf5565b9150613b3282613af3565b602082019050919050565b5f6020820190508181035f830152613b5481613b1b565b9050919050565b5f819050815f5260205f209050919050565b5f6020601f8301049050919050565b5f82821b905092915050565b5f60088302613bb77fffffffffffffffffffffffffffffffffffffffffffffffffffffffffffffffff82613b7c565b613bc18683613b7c565b95508019841693508086168417925050509392505050565b5f613bf3613bee613be98461282e565b612e03565b61282e565b9050919050565b5f819050919050565b613c0c83613bd9565b613c20613c1882613bfa565b848454613b88565b825550505050565b5f5f905090565b613c37613c28565b613c42818484613c03565b505050565b5b81811015613c6557613c5a5f82613c2f565b600181019050613c48565b5050565b601f821115613caa57613c7b81613b5b565b613c8484613b6d565b81016020851015613c93578190505b613ca7613c9f85613b6d565b830182613c47565b50505b505050565b5f82821c905092915050565b5f613cca5f1984600802613caf565b1980831691505092915050565b5f613ce28383613cbb565b9150826002028217905092915050565b613cfb82612ace565b67ffffffffffffffff811115613d1457613d136136ca565b5b613d1e8254613653565b613d29828285613c69565b5f60209050601f831160018114613d5a575f8415613d48578287015190505b613d528582613cd7565b865550613db9565b601f198416613d6886613b5b565b5f5b82811015613d8f57848901518255600182019150602085019450602081019050613d6a565b86831015613dac5784890151613da8601f891682613cbb565b8355505b6001600288020188555050505b505050505050565b828183375f83830152505050565b5f613dda8385612cf5565b9350613de7838584613dc1565b613df083612af6565b840190509392505050565b5f6080820190508181035f830152613e1481888a613dcf565b90508181036020830152613e29818688613dcf565b9050613e386040830185612837565b613e456060830184612837565b979650505050505050565b7f4d61746368206e6f74207265736f6c76656420796574000000000000000000005f82015250565b5f613e84601683612cf5565b9150613e8f82613e50565b602082019050919050565b5f6020820190508181035f830152613eb181613e78565b9050919050565b7f416c726561647920636c61696d656400000000000000000000000000000000005f82015250565b5f613eec600f83612cf5565b9150613ef782613eb8565b602082019050919050565b5f6020820190508181035f830152613f1981613ee0565b9050919050565b7f596f75722070726564696374696f6e207761732077726f6e67000000000000005f82015250565b5f613f54601983612cf5565b9150613f5f82613f20565b602082019050919050565b5f6020820190508181035f830152613f8181613f48565b9050919050565b7f526577617264207472616e73666572206661696c6564000000000000000000005f82015250565b5f613fbc601683612cf5565b9150613fc782613f88565b602082019050919050565b5f6020820190508181035f830152613fe981613fb0565b9050919050565b7f4d61746368206e6f74207265736f6c76656400000000000000000000000000005f82015250565b5f614024601283612cf5565b915061402f82613ff0565b602082019050919050565b5f6020820190508181035f83015261405181614018565b9050919050565b7f50726564696374696f6e207761732077726f6e670000000000000000000000005f82015250565b5f61408c601483612cf5565b915061409782614058565b602082019050919050565b5f6020820190508181035f8301526140b981614080565b9050919050565b7f4e6f7420656c696769626c6520796574000000000000000000000000000000005f82015250565b5f6140f4601083612cf5565b91506140ff826140c0565b602082019050919050565b5f6020820190508181035f830152614121816140e8565b9050919050565b6004811061413957614138612b3e565b5b50565b5f81905061414982614128565b919050565b5f6141588261413c565b9050919050565b6141688161414e565b82525050565b5f6060820190506141815f83018661305e565b61418e602083018561415f565b61419b6040830184612837565b949350505050565b5f815190506141b1816128c1565b92915050565b5f602082840312156141cc576141cb61285f565b5b5f6141d9848285016141a3565b91505092915050565b7f4e6f74206f776e657200000000000000000000000000000000000000000000005f82015250565b5f614216600983612cf5565b9150614221826141e2565b602082019050919050565b5f6020820190508181035f8301526142438161420a565b9050919050565b7f4d61746368206e6f7420666f756e6400000000000000000000000000000000005f82015250565b5f61427e600f83612cf5565b91506142898261424a565b602082019050919050565b5f6020820190508181035f8301526142ab81614272565b9050919050565b7f4d61746368206e6f7420616374697665000000000000000000000000000000005f82015250565b5f6142e6601083612cf5565b91506142f1826142b2565b602082019050919050565b5f6020820190508181035f830152614313816142da565b9050919050565b7f50726564696374696f6e7320617265206c6f636b6564000000000000000000005f82015250565b5f61434e601683612cf5565b91506143598261431a565b602082019050919050565b5f6020820190508181035f83015261437b81614342565b905091905056fea2646970667358221220dabd2d8c34d9c5e9b8bb9d450e20935f8279934df4c55bf0c6eafb3f58c2e9f964736f6c634300081e0033","linkReferences":{}},"methodIdentifiers":{"DONATION_PERCENT()":"45a7d901","WINNER_PERCENT()":"f113ebcc","cancelMatch(uint256)":"d02c8cdf","charity()":"934aa023","claimRefund(uint256)":"5b7baf64","claimReward(uint256)":"ae169a50","correctPredictions(address)":"a6e2a050","createMatch(string,string,uint256,uint256)":"935146d0","getActiveMatches()":"5531407b","getMatch(uint256)":"3d092b3d","getMatchPredictors(uint256)":"1a9d011a","getUserPrediction(uint256,address)":"6ac28cb3","hasPredictedMatch(address,uint256)":"02453529","matchCounter()":"01fd1951","matches(uint256)":"4768d4ef","mintPredictorNft(uint256)":"eafc5e43","nft()":"47ccca02","owner()":"8da5cb5b","placePrediction(uint256,uint8)":"32cd69fa","predictions(uint256,address)":"92b108d0","resolveMatch(uint256,uint8)":"20d54ecf","setDonation(address)":"68e432b2","upgradeNft(uint256)":"63c3efb7"},"id":40}