{"abi":[{"type":"constructor","inputs":[{"name":"c1","type":"address","internalType":"address"},{"name":"c2","type":"address","internalType":"address"},{"name":"c3","type":"address","internalType":"address"}],"stateMutability":"nonpayable"},{"type":"receive","stateMutability":"payable"},{"type":"function","name":"charities","inputs":[{"name":"","type":"address","internalType":"address"}],"outputs":[{"name":"name","type":"string","internalType":"string"},{"name":"description","type":"string","internalType":"string"},{"name":"isActive","type":"bool","internalType":"bool"},{"name":"totalReceived","type":"uint256","internalType":"uint256"}],"stateMutability":"view"},{"type":"function","name":"charityList","inputs":[{"name":"","type":"uint256","internalType":"uint256"}],"outputs":[{"name":"","type":"address","internalType":"address"}],"stateMutability":"view"},{"type":"function","name":"distributeToCharities","inputs":[{"name":"totalAmount","type":"uint256","internalType":"uint256"}],"outputs":[],"stateMutability":"nonpayable"},{"type":"function","name":"getAllCharities","inputs":[],"outputs":[{"name":"","type":"address[]","internalType":"address[]"}],"stateMutability":"view"},{"type":"function","name":"getCharity","inputs":[{"name":"wallet","type":"address","internalType":"address"}],"outputs":[{"name":"","type":"tuple","internalType":"struct Donation.Charity","components":[{"name":"name","type":"string","internalType":"string"},{"name":"description","type":"string","internalType":"string"},{"name":"isActive","type":"bool","internalType":"bool"},{"name":"totalReceived","type":"uint256","internalType":"uint256"}]}],"stateMutability":"view"},{"type":"function","name":"owner","inputs":[],"outputs":[{"name":"","type":"address","internalType":"address"}],"stateMutability":"view"},{"type":"function","name":"totalCharityRaised","inputs":[],"outputs":[{"name":"","type":"uint256","internalType":"uint256"}],"stateMutability":"view"},{"type":"function","name":"transferOwnership","inputs":[{"name":"newOwner","type":"address","internalType":"address"}],"outputs":[],"stateMutability":"nonpayable"},{"type":"event","name":"CharityRegistered","inputs":[{"name":"wallet","type":"address","indexed":true,"internalType":"address"},{"name":"name","type":"string","indexed":false,"internalType":"string"}],"anonymous":false},{"type":"event","name":"DonationReleased","inputs":[{"name":"charity","type":"address","indexed":true,"internalType":"address"},{"name":"amount","type":"uint256","indexed":false,"internalType":"uint256"}],"anonymous":false},{"type":"event","name":"OwnershipTransferred","inputs":[{"name":"oldOwner","type":"address","indexed":true,"internalType":"address"},{"name":"newOwner","type":"address","indexed":true,"internalType":"address"}],"anonymous":false},{"type":"error","name":"ReentrancyGuardReentrantCall","inputs":[]}],"bytecode":{"object":"0x608060405234801561000f575f5ffd5b50604051611b55380380611b558339818101604052810190610031919061041e565b600161004f6100446101b660201b60201c565b6101df60201b60201c565b5f0181905550335f5f6101000a81548173ffffffffffffffffffffffffffffffffffffffff021916908373ffffffffffffffffffffffffffffffffffffffff1602179055506100f2836040518060400160405280600f81526020017f4564686920466f756e646174696f6e0000000000000000000000000000000000815250604051806060016040528060278152602001611b08602791396101e860201b60201c565b610150826040518060400160405280600e81526020017f536861756b6174204b68616e756d000000000000000000000000000000000000815250604051806060016040528060238152602001611ae5602391396101e860201b60201c565b6101ae816040518060400160405280601081526020017f4e616d616c20556e697665727369747900000000000000000000000000000000815250604051806060016040528060268152602001611b2f602691396101e860201b60201c565b505050610868565b5f7f9b779b17422d0df92223018b32b4d1fa46e071723d6817e2486d003becc55f005f1b905090565b5f819050919050565b5f73ffffffffffffffffffffffffffffffffffffffff168373ffffffffffffffffffffffffffffffffffffffff1603610256576040517f08c379a000000000000000000000000000000000000000000000000000000000815260040161024d906104c8565b60405180910390fd5b60405180608001604052808381526020018281526020016001151581526020015f81525060025f8573ffffffffffffffffffffffffffffffffffffffff1673ffffffffffffffffffffffffffffffffffffffff1681526020019081526020015f205f820151815f0190816102ca9190610723565b5060208201518160010190816102e09190610723565b506040820151816002015f6101000a81548160ff02191690831515021790555060608201518160030155905050600183908060018154018082558091505060019003905f5260205f20015f9091909190916101000a81548173ffffffffffffffffffffffffffffffffffffffff021916908373ffffffffffffffffffffffffffffffffffffffff1602179055508273ffffffffffffffffffffffffffffffffffffffff167fe68fc0f6644db69f95f4290aa902a3275ab2fc0d43c4e893ab676b3452444a1b836040516103b39190610848565b60405180910390a2505050565b5f5ffd5b5f73ffffffffffffffffffffffffffffffffffffffff82169050919050565b5f6103ed826103c4565b9050919050565b6103fd816103e3565b8114610407575f5ffd5b50565b5f81519050610418816103f4565b92915050565b5f5f5f60608486031215610435576104346103c0565b5b5f6104428682870161040a565b93505060206104538682870161040a565b92505060406104648682870161040a565b9150509250925092565b5f82825260208201905092915050565b7f496e76616c6964206164647265737300000000000000000000000000000000005f82015250565b5f6104b2600f8361046e565b91506104bd8261047e565b602082019050919050565b5f6020820190508181035f8301526104df816104a6565b9050919050565b5f81519050919050565b7f4e487b71000000000000000000000000000000000000000000000000000000005f52604160045260245ffd5b7f4e487b71000000000000000000000000000000000000000000000000000000005f52602260045260245ffd5b5f600282049050600182168061056157607f821691505b6020821081036105745761057361051d565b5b50919050565b5f819050815f5260205f209050919050565b5f6020601f8301049050919050565b5f82821b905092915050565b5f600883026105d67fffffffffffffffffffffffffffffffffffffffffffffffffffffffffffffffff8261059b565b6105e0868361059b565b95508019841693508086168417925050509392505050565b5f819050919050565b5f819050919050565b5f61062461061f61061a846105f8565b610601565b6105f8565b9050919050565b5f819050919050565b61063d8361060a565b6106516106498261062b565b8484546105a7565b825550505050565b5f5f905090565b610668610659565b610673818484610634565b505050565b5b818110156106965761068b5f82610660565b600181019050610679565b5050565b601f8211156106db576106ac8161057a565b6106b58461058c565b810160208510156106c4578190505b6106d86106d08561058c565b830182610678565b50505b505050565b5f82821c905092915050565b5f6106fb5f19846008026106e0565b1980831691505092915050565b5f61071383836106ec565b9150826002028217905092915050565b61072c826104e6565b67ffffffffffffffff811115610745576107446104f0565b5b61074f825461054a565b61075a82828561069a565b5f60209050601f83116001811461078b575f8415610779578287015190505b6107838582610708565b8655506107ea565b601f1984166107998661057a565b5f5b828110156107c05784890151825560018201915060208501945060208101905061079b565b868310156107dd57848901516107d9601f8916826106ec565b8355505b6001600288020188555050505b505050505050565b8281835e5f83830152505050565b5f601f19601f8301169050919050565b5f61081a826104e6565b610824818561046e565b93506108348185602086016107f2565b61083d81610800565b840191505092915050565b5f6020820190508181035f8301526108608184610810565b905092915050565b611270806108755f395ff3fe60806040526004361061007e575f3560e01c80638da5cb5b1161004d5780638da5cb5b1461016a578063acbc61ab14610194578063b5bbd279146101bc578063f2fde38b146101e657610085565b80631bf230cd146100895780632478239a146100c557806327d2fb891461010457806339958e011461014057610085565b3661008557005b5f5ffd5b348015610094575f5ffd5b506100af60048036038101906100aa9190610b8e565b61020e565b6040516100bc9190610cc2565b60405180910390f35b3480156100d0575f5ffd5b506100eb60048036038101906100e69190610b8e565b6103a8565b6040516100fb9493929190610d48565b60405180910390f35b34801561010f575f5ffd5b5061012a60048036038101906101259190610dc3565b6104ec565b6040516101379190610dfd565b60405180910390f35b34801561014b575f5ffd5b50610154610527565b6040516101619190610e16565b60405180910390f35b348015610175575f5ffd5b5061017e61052d565b60405161018b9190610dfd565b60405180910390f35b34801561019f575f5ffd5b506101ba60048036038101906101b59190610dc3565b610551565b005b3480156101c7575f5ffd5b506101d06107f0565b6040516101dd9190610ee6565b60405180910390f35b3480156101f1575f5ffd5b5061020c60048036038101906102079190610b8e565b61087b565b005b610216610b08565b60025f8373ffffffffffffffffffffffffffffffffffffffff1673ffffffffffffffffffffffffffffffffffffffff1681526020019081526020015f206040518060800160405290815f8201805461026d90610f33565b80601f016020809104026020016040519081016040528092919081815260200182805461029990610f33565b80156102e45780601f106102bb576101008083540402835291602001916102e4565b820191905f5260205f20905b8154815290600101906020018083116102c757829003601f168201915b505050505081526020016001820180546102fd90610f33565b80601f016020809104026020016040519081016040528092919081815260200182805461032990610f33565b80156103745780601f1061034b57610100808354040283529160200191610374565b820191905f5260205f20905b81548152906001019060200180831161035757829003601f168201915b50505050508152602001600282015f9054906101000a900460ff161515151581526020016003820154815250509050919050565b6002602052805f5260405f205f91509050805f0180546103c790610f33565b80601f01602080910402602001604051908101604052809291908181526020018280546103f390610f33565b801561043e5780601f106104155761010080835404028352916020019161043e565b820191905f5260205f20905b81548152906001019060200180831161042157829003601f168201915b50505050509080600101805461045390610f33565b80601f016020809104026020016040519081016040528092919081815260200182805461047f90610f33565b80156104ca5780601f106104a1576101008083540402835291602001916104ca565b820191905f5260205f20905b8154815290600101906020018083116104ad57829003601f168201915b505050505090806002015f9054906101000a900460ff16908060030154905084565b600181815481106104fb575f80fd5b905f5260205f20015f915054906101000a900473ffffffffffffffffffffffffffffffffffffffff1681565b60035481565b5f5f9054906101000a900473ffffffffffffffffffffffffffffffffffffffff1681565b6105596109ad565b610561610a3d565b5f60018054905090505f810361057757506107e5565b5f81836105849190610fbd565b90505f82826105939190610fed565b8461059e919061102e565b90505f5f90505b838110156107e0575f600182815481106105c2576105c1611061565b5b905f5260205f20015f9054906101000a900473ffffffffffffffffffffffffffffffffffffffff16905060025f8273ffffffffffffffffffffffffffffffffffffffff1673ffffffffffffffffffffffffffffffffffffffff1681526020019081526020015f206002015f9054906101000a900460ff1661064357506107d3565b5f600186610651919061102e565b831461065d578461066a565b8385610669919061108e565b5b90508060025f8473ffffffffffffffffffffffffffffffffffffffff1673ffffffffffffffffffffffffffffffffffffffff1681526020019081526020015f206003015f8282546106bb919061108e565b925050819055508060035f8282546106d3919061108e565b925050819055505f8273ffffffffffffffffffffffffffffffffffffffff16826040516106ff906110ee565b5f6040518083038185875af1925050503d805f8114610739576040519150601f19603f3d011682016040523d82523d5f602084013e61073e565b606091505b5050905080610782576040517f08c379a00000000000000000000000000000000000000000000000000000000081526004016107799061114c565b60405180910390fd5b8273ffffffffffffffffffffffffffffffffffffffff167eb6232a3f584120dbd4eaa330048f5cf9baa3f0d527bd3e9c07609f7a363593836040516107c79190610e16565b60405180910390a25050505b80806001019150506105a5565b505050505b6107ed610a5f565b50565b6060600180548060200260200160405190810160405280929190818152602001828054801561087157602002820191905f5260205f20905b815f9054906101000a900473ffffffffffffffffffffffffffffffffffffffff1673ffffffffffffffffffffffffffffffffffffffff1681526020019060010190808311610828575b5050505050905090565b6108836109ad565b5f73ffffffffffffffffffffffffffffffffffffffff168173ffffffffffffffffffffffffffffffffffffffff16036108f1576040517f08c379a00000000000000000000000000000000000000000000000000000000081526004016108e8906111b4565b60405180910390fd5b8073ffffffffffffffffffffffffffffffffffffffff165f5f9054906101000a900473ffffffffffffffffffffffffffffffffffffffff1673ffffffffffffffffffffffffffffffffffffffff167f8be0079c531659141344cd1fd0a4f28419497f9722a3daafe3b4186f6b6457e060405160405180910390a3805f5f6101000a81548173ffffffffffffffffffffffffffffffffffffffff021916908373ffffffffffffffffffffffffffffffffffffffff16021790555050565b5f5f9054906101000a900473ffffffffffffffffffffffffffffffffffffffff1673ffffffffffffffffffffffffffffffffffffffff163373ffffffffffffffffffffffffffffffffffffffff1614610a3b576040517f08c379a0000000000000000000000000000000000000000000000000000000008152600401610a329061121c565b60405180910390fd5b565b610a45610a79565b6002610a57610a52610aba565b610ae3565b5f0181905550565b6001610a71610a6c610aba565b610ae3565b5f0181905550565b610a81610aec565b15610ab8576040517f3ee5aeb500000000000000000000000000000000000000000000000000000000815260040160405180910390fd5b565b5f7f9b779b17422d0df92223018b32b4d1fa46e071723d6817e2486d003becc55f005f1b905090565b5f819050919050565b5f6002610aff610afa610aba565b610ae3565b5f015414905090565b604051806080016040528060608152602001606081526020015f151581526020015f81525090565b5f5ffd5b5f73ffffffffffffffffffffffffffffffffffffffff82169050919050565b5f610b5d82610b34565b9050919050565b610b6d81610b53565b8114610b77575f5ffd5b50565b5f81359050610b8881610b64565b92915050565b5f60208284031215610ba357610ba2610b30565b5b5f610bb084828501610b7a565b91505092915050565b5f81519050919050565b5f82825260208201905092915050565b8281835e5f83830152505050565b5f601f19601f8301169050919050565b5f610bfb82610bb9565b610c058185610bc3565b9350610c15818560208601610bd3565b610c1e81610be1565b840191505092915050565b5f8115159050919050565b610c3d81610c29565b82525050565b5f819050919050565b610c5581610c43565b82525050565b5f608083015f8301518482035f860152610c758282610bf1565b91505060208301518482036020860152610c8f8282610bf1565b9150506040830151610ca46040860182610c34565b506060830151610cb76060860182610c4c565b508091505092915050565b5f6020820190508181035f830152610cda8184610c5b565b905092915050565b5f82825260208201905092915050565b5f610cfc82610bb9565b610d068185610ce2565b9350610d16818560208601610bd3565b610d1f81610be1565b840191505092915050565b610d3381610c29565b82525050565b610d4281610c43565b82525050565b5f6080820190508181035f830152610d608187610cf2565b90508181036020830152610d748186610cf2565b9050610d836040830185610d2a565b610d906060830184610d39565b95945050505050565b610da281610c43565b8114610dac575f5ffd5b50565b5f81359050610dbd81610d99565b92915050565b5f60208284031215610dd857610dd7610b30565b5b5f610de584828501610daf565b91505092915050565b610df781610b53565b82525050565b5f602082019050610e105f830184610dee565b92915050565b5f602082019050610e295f830184610d39565b92915050565b5f81519050919050565b5f82825260208201905092915050565b5f819050602082019050919050565b610e6181610b53565b82525050565b5f610e728383610e58565b60208301905092915050565b5f602082019050919050565b5f610e9482610e2f565b610e9e8185610e39565b9350610ea983610e49565b805f5b83811015610ed9578151610ec08882610e67565b9750610ecb83610e7e565b925050600181019050610eac565b5085935050505092915050565b5f6020820190508181035f830152610efe8184610e8a565b905092915050565b7f4e487b71000000000000000000000000000000000000000000000000000000005f52602260045260245ffd5b5f6002820490506001821680610f4a57607f821691505b602082108103610f5d57610f5c610f06565b5b50919050565b7f4e487b71000000000000000000000000000000000000000000000000000000005f52601260045260245ffd5b7f4e487b71000000000000000000000000000000000000000000000000000000005f52601160045260245ffd5b5f610fc782610c43565b9150610fd283610c43565b925082610fe257610fe1610f63565b5b828204905092915050565b5f610ff782610c43565b915061100283610c43565b925082820261101081610c43565b9150828204841483151761102757611026610f90565b5b5092915050565b5f61103882610c43565b915061104383610c43565b925082820390508181111561105b5761105a610f90565b5b92915050565b7f4e487b71000000000000000000000000000000000000000000000000000000005f52603260045260245ffd5b5f61109882610c43565b91506110a383610c43565b92508282019050808211156110bb576110ba610f90565b5b92915050565b5f81905092915050565b50565b5f6110d95f836110c1565b91506110e4826110cb565b5f82019050919050565b5f6110f8826110ce565b9150819050919050565b7f43686172697479207472616e73666572206661696c65640000000000000000005f82015250565b5f611136601783610ce2565b915061114182611102565b602082019050919050565b5f6020820190508181035f8301526111638161112a565b9050919050565b7f5a65726f206164647265737300000000000000000000000000000000000000005f82015250565b5f61119e600c83610ce2565b91506111a98261116a565b602082019050919050565b5f6020820190508181035f8301526111cb81611192565b9050919050565b7f4e6f74206f776e657200000000000000000000000000000000000000000000005f82015250565b5f611206600983610ce2565b9150611211826111d2565b602082019050919050565b5f6020820190508181035f830152611233816111fa565b905091905056fea26469706673582212204c73f6ea2ebe92dcd9e12a705c8ccd2aa9f12fe161649025a0e831829623408064736f6c634300081e003343616e63657220686f73706974616c20616e642072657365617263682063656e74726550616b697374616e2773206c6172676573742077656c66617265206f7267616e697a6174696f6e456475636174696f6e20666f7220756e64657270726976696c656765642073747564656e7473","linkReferences":{}},"methodIdentifiers":{"charities(address)":"2478239a","charityList(uint256)":"27d2fb89","distributeToCharities(uint256)":"acbc61ab","getAllCharities()":"b5bbd279","getCharity(address)":"1bf230cd","owner()":"8da5cb5b","totalCharityRaised()":"39958e01","transferOwnership(address)":"f2fde38b"},"id":38}