{"abi":[{"type":"constructor","inputs":[],"stateMutability":"nonpayable"},{"type":"function","name":"approve","inputs":[{"name":"to","type":"address","internalType":"address"},{"name":"tokenId","type":"uint256","internalType":"uint256"}],"outputs":[],"stateMutability":"nonpayable"},{"type":"function","name":"balanceOf","inputs":[{"name":"owner","type":"address","internalType":"address"}],"outputs":[{"name":"","type":"uint256","internalType":"uint256"}],"stateMutability":"view"},{"type":"function","name":"bronzeURI","inputs":[],"outputs":[{"name":"","type":"string","internalType":"string"}],"stateMutability":"view"},{"type":"function","name":"core","inputs":[],"outputs":[{"name":"","type":"address","internalType":"address"}],"stateMutability":"view"},{"type":"function","name":"getApproved","inputs":[{"name":"tokenId","type":"uint256","internalType":"uint256"}],"outputs":[{"name":"","type":"address","internalType":"address"}],"stateMutability":"view"},{"type":"function","name":"getNftMetadata","inputs":[{"name":"tokenId","type":"uint256","internalType":"uint256"}],"outputs":[{"name":"","type":"tuple","internalType":"struct RewardNFT.NftMetadata","components":[{"name":"tier","type":"uint8","internalType":"enum RewardNFT.NFTTier"},{"name":"mintedAt","type":"uint256","internalType":"uint256"},{"name":"predictionsAtMint","type":"uint256","internalType":"uint256"}]}],"stateMutability":"view"},{"type":"function","name":"getUserNfts","inputs":[{"name":"user","type":"address","internalType":"address"}],"outputs":[{"name":"","type":"uint256[]","internalType":"uint256[]"}],"stateMutability":"view"},{"type":"function","name":"goldURI","inputs":[],"outputs":[{"name":"","type":"string","internalType":"string"}],"stateMutability":"view"},{"type":"function","name":"isApprovedForAll","inputs":[{"name":"owner","type":"address","internalType":"address"},{"name":"operator","type":"address","internalType":"address"}],"outputs":[{"name":"","type":"bool","internalType":"bool"}],"stateMutability":"view"},{"type":"function","name":"mintNft","inputs":[{"name":"user","type":"address","internalType":"address"},{"name":"tier","type":"uint8","internalType":"enum RewardNFT.NFTTier"},{"name":"correctCount","type":"uint256","internalType":"uint256"}],"outputs":[{"name":"","type":"uint256","internalType":"uint256"}],"stateMutability":"nonpayable"},{"type":"function","name":"name","inputs":[],"outputs":[{"name":"","type":"string","internalType":"string"}],"stateMutability":"view"},{"type":"function","name":"nftMetadata","inputs":[{"name":"","type":"uint256","internalType":"uint256"}],"outputs":[{"name":"tier","type":"uint8","internalType":"enum RewardNFT.NFTTier"},{"name":"mintedAt","type":"uint256","internalType":"uint256"},{"name":"predictionsAtMint","type":"uint256","internalType":"uint256"}],"stateMutability":"view"},{"type":"function","name":"ownerOf","inputs":[{"name":"tokenId","type":"uint256","internalType":"uint256"}],"outputs":[{"name":"","type":"address","internalType":"address"}],"stateMutability":"view"},{"type":"function","name":"safeTransferFrom","inputs":[{"name":"from","type":"address","internalType":"address"},{"name":"to","type":"address","internalType":"address"},{"name":"tokenId","type":"uint256","internalType":"uint256"}],"outputs":[],"stateMutability":"nonpayable"},{"type":"function","name":"safeTransferFrom","inputs":[{"name":"from","type":"address","internalType":"address"},{"name":"to","type":"address","internalType":"address"},{"name":"tokenId","type":"uint256","internalType":"uint256"},{"name":"data","type":"bytes","internalType":"bytes"}],"outputs":[],"stateMutability":"nonpayable"},{"type":"function","name":"setApprovalForAll","inputs":[{"name":"operator","type":"address","internalType":"address"},{"name":"approved","type":"bool","internalType":"bool"}],"outputs":[],"stateMutability":"nonpayable"},{"type":"function","name":"setCore","inputs":[{"name":"_core","type":"address","internalType":"address"}],"outputs":[],"stateMutability":"nonpayable"},{"type":"function","name":"setUris","inputs":[{"name":"b","type":"string","internalType":"string"},{"name":"s","type":"string","internalType":"string"},{"name":"g","type":"string","internalType":"string"}],"outputs":[],"stateMutability":"nonpayable"},{"type":"function","name":"silverURI","inputs":[],"outputs":[{"name":"","type":"string","internalType":"string"}],"stateMutability":"view"},{"type":"function","name":"supportsInterface","inputs":[{"name":"interfaceId","type":"bytes4","internalType":"bytes4"}],"outputs":[{"name":"","type":"bool","internalType":"bool"}],"stateMutability":"view"},{"type":"function","name":"symbol","inputs":[],"outputs":[{"name":"","type":"string","internalType":"string"}],"stateMutability":"view"},{"type":"function","name":"tierMinted","inputs":[{"name":"","type":"address","internalType":"address"},{"name":"","type":"uint8","internalType":"enum RewardNFT.NFTTier"}],"outputs":[{"name":"","type":"bool","internalType":"bool"}],"stateMutability":"view"},{"type":"function","name":"tokenCounter","inputs":[],"outputs":[{"name":"","type":"uint256","internalType":"uint256"}],"stateMutability":"view"},{"type":"function","name":"tokenURI","inputs":[{"name":"tokenId","type":"uint256","internalType":"uint256"}],"outputs":[{"name":"","type":"string","internalType":"string"}],"stateMutability":"view"},{"type":"function","name":"transferFrom","inputs":[{"name":"from","type":"address","internalType":"address"},{"name":"to","type":"address","internalType":"address"},{"name":"tokenId","type":"uint256","internalType":"uint256"}],"outputs":[],"stateMutability":"nonpayable"},{"type":"function","name":"upgradeNft","inputs":[{"name":"user","type":"address","internalType":"address"},{"name":"tokenId","type":"uint256","internalType":"uint256"}],"outputs":[],"stateMutability":"nonpayable"},{"type":"function","name":"userNfts","inputs":[{"name":"","type":"address","internalType":"address"},{"name":"","type":"uint256","internalType":"uint256"}],"outputs":[{"name":"","type":"uint256","internalType":"uint256"}],"stateMutability":"view"},{"type":"event","name":"Approval","inputs":[{"name":"owner","type":"address","indexed":true,"internalType":"address"},{"name":"approved","type":"address","indexed":true,"internalType":"address"},{"name":"tokenId","type":"uint256","indexed":true,"internalType":"uint256"}],"anonymous":false},{"type":"event","name":"ApprovalForAll","inputs":[{"name":"owner","type":"address","indexed":true,"internalType":"address"},{"name":"operator","type":"address","indexed":true,"internalType":"address"},{"name":"approved","type":"bool","indexed":false,"internalType":"bool"}],"anonymous":false},{"type":"event","name":"CoreSet","inputs":[{"name":"core","type":"address","indexed":true,"internalType":"address"}],"anonymous":false},{"type":"event","name":"NFTMinted","inputs":[{"name":"user","type":"address","indexed":true,"internalType":"address"},{"name":"tokenId","type":"uint256","indexed":false,"internalType":"uint256"},{"name":"tier","type":"uint8","indexed":false,"internalType":"enum RewardNFT.NFTTier"}],"anonymous":false},{"type":"event","name":"NFTUpgraded","inputs":[{"name":"user","type":"address","indexed":true,"internalType":"address"},{"name":"tokenId","type":"uint256","indexed":false,"internalType":"uint256"},{"name":"oldTier","type":"uint8","indexed":false,"internalType":"enum RewardNFT.NFTTier"},{"name":"newTier","type":"uint8","indexed":false,"internalType":"enum RewardNFT.NFTTier"}],"anonymous":false},{"type":"event","name":"Transfer","inputs":[{"name":"from","type":"address","indexed":true,"internalType":"address"},{"name":"to","type":"address","indexed":true,"internalType":"address"},{"name":"tokenId","type":"uint256","indexed":true,"internalType":"uint256"}],"anonymous":false},{"type":"error","name":"ERC721IncorrectOwner","inputs":[{"name":"sender","type":"address","internalType":"address"},{"name":"tokenId","type":"uint256","internalType":"uint256"},{"name":"owner","type":"address","internalType":"address"}]},{"type":"error","name":"ERC721InsufficientApproval","inputs":[{"name":"operator","type":"address","internalType":"address"},{"name":"tokenId","type":"uint256","internalType":"uint256"}]},{"type":"error","name":"ERC721InvalidApprover","inputs":[{"name":"approver","type":"address","internalType":"address"}]},{"type":"error","name":"ERC721InvalidOperator","inputs":[{"name":"operator","type":"address","internalType":"address"}]},{"type":"error","name":"ERC721InvalidOwner","inputs":[{"name":"owner","type":"address","internalType":"address"}]},{"type":"error","name":"ERC721InvalidReceiver","inputs":[{"name":"receiver","type":"address","internalType":"address"}]},{"type":"error","name":"ERC721InvalidSender","inputs":[{"name":"sender","type":"address","internalType":"address"}]},{"type":"error","name":"ERC721NonexistentToken","inputs":[{"name":"tokenId","type":"uint256","internalType":"uint256"}]}],"bytecode":{"object":"0x608060405234801561000f575f5ffd5b506040518060400160405280600e81526020017f50726564696374466f72476f6f640000000000000000000000000000000000008152506040518060400160405280600381526020017f5034470000000000000000000000000000000000000000000000000000000000815250815f908161008a91906102df565b50806001908161009a91906102df565b5050506103ae565b5f81519050919050565b7f4e487b71000000000000000000000000000000000000000000000000000000005f52604160045260245ffd5b7f4e487b71000000000000000000000000000000000000000000000000000000005f52602260045260245ffd5b5f600282049050600182168061011d57607f821691505b6020821081036101305761012f6100d9565b5b50919050565b5f819050815f5260205f209050919050565b5f6020601f8301049050919050565b5f82821b905092915050565b5f600883026101927fffffffffffffffffffffffffffffffffffffffffffffffffffffffffffffffff82610157565b61019c8683610157565b95508019841693508086168417925050509392505050565b5f819050919050565b5f819050919050565b5f6101e06101db6101d6846101b4565b6101bd565b6101b4565b9050919050565b5f819050919050565b6101f9836101c6565b61020d610205826101e7565b848454610163565b825550505050565b5f5f905090565b610224610215565b61022f8184846101f0565b505050565b5b81811015610252576102475f8261021c565b600181019050610235565b5050565b601f8211156102975761026881610136565b61027184610148565b81016020851015610280578190505b61029461028c85610148565b830182610234565b50505b505050565b5f82821c905092915050565b5f6102b75f198460080261029c565b1980831691505092915050565b5f6102cf83836102a8565b9150826002028217905092915050565b6102e8826100a2565b67ffffffffffffffff811115610301576103006100ac565b5b61030b8254610106565b610316828285610256565b5f60209050601f831160018114610347575f8415610335578287015190505b61033f85826102c4565b8655506103a6565b601f19841661035586610136565b5f5b8281101561037c57848901518255600182019150602085019450602081019050610357565b868310156103995784890151610395601f8916826102a8565b8355505b6001600288020188555050505b505050505050565b61364d806103bb5f395ff3fe608060405234801561000f575f5ffd5b50600436106101a7575f3560e01c806395a277d1116100f7578063c87b56dd11610095578063e985e9c51161006f578063e985e9c514610505578063e9cb499b14610535578063f2f4eb2614610551578063f944c31c1461056f576101a7565b8063c87b56dd14610487578063d082e381146104b7578063d8c0e5c9146104d5576101a7565b8063a22cb465116100d1578063a22cb46514610401578063ad27314b1461041d578063b88d4fde1461044d578063c2fa333e14610469576101a7565b806395a277d1146103a757806395d89b41146103c55780639745107c146103e3576101a7565b8063495410151161016457806369b262b61161013e57806369b262b6146102fb57806370a082311461032b5780637908d0091461035b578063800096301461038b576101a7565b8063495410151461027d578063540572d0146102af5780636352211e146102cb576101a7565b806301ffc9a7146101ab57806306fdde03146101db578063081812fc146101f9578063095ea7b31461022957806323b872dd1461024557806342842e0e14610261575b5f5ffd5b6101c560048036038101906101c09190612556565b61059f565b6040516101d2919061259b565b60405180910390f35b6101e3610680565b6040516101f09190612624565b60405180910390f35b610213600480360381019061020e9190612677565b61070f565b60405161022091906126e1565b60405180910390f35b610243600480360381019061023e9190612724565b61072a565b005b61025f600480360381019061025a9190612762565b610740565b005b61027b60048036038101906102769190612762565b61083f565b005b61029760048036038101906102929190612677565b61085e565b6040516102a693929190612834565b60405180910390f35b6102c960048036038101906102c491906128ca565b610890565b005b6102e560048036038101906102e09190612677565b6108ce565b6040516102f291906126e1565b60405180910390f35b61031560048036038101906103109190612724565b6108df565b604051610322919061297a565b60405180910390f35b61034560048036038101906103409190612993565b61090a565b604051610352919061297a565b60405180910390f35b61037560048036038101906103709190612993565b6109c0565b6040516103829190612a75565b60405180910390f35b6103a560048036038101906103a09190612993565b610a53565b005b6103af610bd6565b6040516103bc9190612624565b60405180910390f35b6103cd610c62565b6040516103da9190612624565b60405180910390f35b6103eb610cf2565b6040516103f89190612624565b60405180910390f35b61041b60048036038101906104169190612abf565b610d7e565b005b61043760048036038101906104329190612677565b610d94565b6040516104449190612b4c565b60405180910390f35b61046760048036038101906104629190612c8d565b610e0c565b005b610471610e31565b60405161047e9190612624565b60405180910390f35b6104a1600480360381019061049c9190612677565b610ebd565b6040516104ae9190612624565b60405180910390f35b6104bf6111a6565b6040516104cc919061297a565b60405180910390f35b6104ef60048036038101906104ea9190612d30565b6111ac565b6040516104fc919061259b565b60405180910390f35b61051f600480360381019061051a9190612d6e565b6111d6565b60405161052c919061259b565b60405180910390f35b61054f600480360381019061054a9190612724565b611264565b005b610559611578565b60405161056691906126e1565b60405180910390f35b61058960048036038101906105849190612dac565b61159d565b604051610596919061297a565b60405180910390f35b5f7f80ac58cd000000000000000000000000000000000000000000000000000000007bffffffffffffffffffffffffffffffffffffffffffffffffffffffff1916827bffffffffffffffffffffffffffffffffffffffffffffffffffffffff1916148061066957507f5b5e139f000000000000000000000000000000000000000000000000000000007bffffffffffffffffffffffffffffffffffffffffffffffffffffffff1916827bffffffffffffffffffffffffffffffffffffffffffffffffffffffff1916145b806106795750610678826118b0565b5b9050919050565b60605f805461068e90612e29565b80601f01602080910402602001604051908101604052809291908181526020018280546106ba90612e29565b80156107055780601f106106dc57610100808354040283529160200191610705565b820191905f5260205f20905b8154815290600101906020018083116106e857829003601f168201915b5050505050905090565b5f61071982611919565b506107238261199f565b9050919050565b61073c82826107376119d8565b6119df565b5050565b5f73ffffffffffffffffffffffffffffffffffffffff168273ffffffffffffffffffffffffffffffffffffffff16036107b0575f6040517f64a0ae920000000000000000000000000000000000000000000000000000000081526004016107a791906126e1565b60405180910390fd5b5f6107c383836107be6119d8565b6119f1565b90508373ffffffffffffffffffffffffffffffffffffffff168173ffffffffffffffffffffffffffffffffffffffff1614610839578382826040517f64283d7b00000000000000000000000000000000000000000000000000000000815260040161083093929190612e59565b60405180910390fd5b50505050565b61085983838360405180602001604052805f815250610e0c565b505050565b600b602052805f5260405f205f91509050805f015f9054906101000a900460ff16908060010154908060020154905083565b8585600891826108a1929190613038565b508383600991826108b3929190613038565b508181600a91826108c5929190613038565b50505050505050565b5f6108d882611919565b9050919050565b600c602052815f5260405f2081815481106108f8575f80fd5b905f5260205f20015f91509150505481565b5f5f73ffffffffffffffffffffffffffffffffffffffff168273ffffffffffffffffffffffffffffffffffffffff160361097b575f6040517f89c62b6400000000000000000000000000000000000000000000000000000000815260040161097291906126e1565b60405180910390fd5b60035f8373ffffffffffffffffffffffffffffffffffffffff1673ffffffffffffffffffffffffffffffffffffffff1681526020019081526020015f20549050919050565b6060600c5f8373ffffffffffffffffffffffffffffffffffffffff1673ffffffffffffffffffffffffffffffffffffffff1681526020019081526020015f20805480602002602001604051908101604052809291908181526020018280548015610a4757602002820191905f5260205f20905b815481526020019060010190808311610a33575b50505050509050919050565b5f73ffffffffffffffffffffffffffffffffffffffff1660065f9054906101000a900473ffffffffffffffffffffffffffffffffffffffff1673ffffffffffffffffffffffffffffffffffffffff1614610ae2576040517f08c379a0000000000000000000000000000000000000000000000000000000008152600401610ad99061314f565b60405180910390fd5b5f73ffffffffffffffffffffffffffffffffffffffff168173ffffffffffffffffffffffffffffffffffffffff1603610b50576040517f08c379a0000000000000000000000000000000000000000000000000000000008152600401610b47906131b7565b60405180910390fd5b8060065f6101000a81548173ffffffffffffffffffffffffffffffffffffffff021916908373ffffffffffffffffffffffffffffffffffffffff1602179055508073ffffffffffffffffffffffffffffffffffffffff167f90db982ad7e7c631cc388cc3f76688bf08ffe8a87e161db50887cf7ef4194dee60405160405180910390a250565b600a8054610be390612e29565b80601f0160208091040260200160405190810160405280929190818152602001828054610c0f90612e29565b8015610c5a5780601f10610c3157610100808354040283529160200191610c5a565b820191905f5260205f20905b815481529060010190602001808311610c3d57829003601f168201915b505050505081565b606060018054610c7190612e29565b80601f0160208091040260200160405190810160405280929190818152602001828054610c9d90612e29565b8015610ce85780601f10610cbf57610100808354040283529160200191610ce8565b820191905f5260205f20905b815481529060010190602001808311610ccb57829003601f168201915b5050505050905090565b60088054610cff90612e29565b80601f0160208091040260200160405190810160405280929190818152602001828054610d2b90612e29565b8015610d765780601f10610d4d57610100808354040283529160200191610d76565b820191905f5260205f20905b815481529060010190602001808311610d5957829003601f168201915b505050505081565b610d90610d896119d8565b8383611bfc565b5050565b610d9c6124c0565b600b5f8381526020019081526020015f206040518060600160405290815f82015f9054906101000a900460ff166003811115610ddb57610dda6127b2565b5b6003811115610ded57610dec6127b2565b5b8152602001600182015481526020016002820154815250509050919050565b610e17848484610740565b610e2b610e226119d8565b85858585611dd5565b50505050565b60098054610e3e90612e29565b80601f0160208091040260200160405190810160405280929190818152602001828054610e6a90612e29565b8015610eb55780601f10610e8c57610100808354040283529160200191610eb5565b820191905f5260205f20905b815481529060010190602001808311610e9857829003601f168201915b505050505081565b60605f73ffffffffffffffffffffffffffffffffffffffff16610edf83611f81565b73ffffffffffffffffffffffffffffffffffffffff1603610f35576040517f08c379a0000000000000000000000000000000000000000000000000000000008152600401610f2c9061321f565b60405180910390fd5b5f600b5f8481526020019081526020015f205f015f9054906101000a900460ff169050600380811115610f6b57610f6a6127b2565b5b816003811115610f7e57610f7d6127b2565b5b0361101457600a8054610f9090612e29565b80601f0160208091040260200160405190810160405280929190818152602001828054610fbc90612e29565b80156110075780601f10610fde57610100808354040283529160200191611007565b820191905f5260205f20905b815481529060010190602001808311610fea57829003601f168201915b50505050509150506111a1565b60026003811115611028576110276127b2565b5b81600381111561103b5761103a6127b2565b5b036110d1576009805461104d90612e29565b80601f016020809104026020016040519081016040528092919081815260200182805461107990612e29565b80156110c45780601f1061109b576101008083540402835291602001916110c4565b820191905f5260205f20905b8154815290600101906020018083116110a757829003601f168201915b50505050509150506111a1565b600160038111156110e5576110e46127b2565b5b8160038111156110f8576110f76127b2565b5b0361118e576008805461110a90612e29565b80601f016020809104026020016040519081016040528092919081815260200182805461113690612e29565b80156111815780601f1061115857610100808354040283529160200191611181565b820191905f5260205f20905b81548152906001019060200180831161116457829003601f168201915b50505050509150506111a1565b60405180602001604052805f8152509150505b919050565b60075481565b600d602052815f5260405f20602052805f5260405f205f915091509054906101000a900460ff1681565b5f60055f8473ffffffffffffffffffffffffffffffffffffffff1673ffffffffffffffffffffffffffffffffffffffff1681526020019081526020015f205f8373ffffffffffffffffffffffffffffffffffffffff1673ffffffffffffffffffffffffffffffffffffffff1681526020019081526020015f205f9054906101000a900460ff16905092915050565b61126c611fba565b8173ffffffffffffffffffffffffffffffffffffffff1661128c82611f81565b73ffffffffffffffffffffffffffffffffffffffff16146112e2576040517f08c379a00000000000000000000000000000000000000000000000000000000081526004016112d990613287565b60405180910390fd5b5f600b5f8381526020019081526020015f2090505f815f015f9054906101000a900460ff1690505f6001600381111561131e5761131d6127b2565b5b826003811115611331576113306127b2565b5b0361133f57600290506113b0565b60026003811115611353576113526127b2565b5b826003811115611366576113656127b2565b5b0361137457600390506113af565b6040517f08c379a00000000000000000000000000000000000000000000000000000000081526004016113a6906132ef565b60405180910390fd5b5b600d5f8673ffffffffffffffffffffffffffffffffffffffff1673ffffffffffffffffffffffffffffffffffffffff1681526020019081526020015f205f826003811115611401576114006127b2565b5b6003811115611413576114126127b2565b5b81526020019081526020015f205f9054906101000a900460ff161561146d576040517f08c379a000000000000000000000000000000000000000000000000000000000815260040161146490613357565b60405180910390fd5b80835f015f6101000a81548160ff02191690836003811115611492576114916127b2565b5b02179055506001600d5f8773ffffffffffffffffffffffffffffffffffffffff1673ffffffffffffffffffffffffffffffffffffffff1681526020019081526020015f205f8360038111156114ea576114e96127b2565b5b60038111156114fc576114fb6127b2565b5b81526020019081526020015f205f6101000a81548160ff0219169083151502179055508473ffffffffffffffffffffffffffffffffffffffff167f20eeafca9c3b4156772eb370fcdaae29723950376a0e901efb937b9d2bad35f585848460405161156993929190613375565b60405180910390a25050505050565b60065f9054906101000a900473ffffffffffffffffffffffffffffffffffffffff1681565b5f6115a6611fba565b5f60038111156115b9576115b86127b2565b5b8360038111156115cc576115cb6127b2565b5b0361160c576040517f08c379a0000000000000000000000000000000000000000000000000000000008152600401611603906133f4565b60405180910390fd5b600d5f8573ffffffffffffffffffffffffffffffffffffffff1673ffffffffffffffffffffffffffffffffffffffff1681526020019081526020015f205f84600381111561165d5761165c6127b2565b5b600381111561166f5761166e6127b2565b5b81526020019081526020015f205f9054906101000a900460ff16156116c9576040517f08c379a00000000000000000000000000000000000000000000000000000000081526004016116c090613357565b60405180910390fd5b6001600d5f8673ffffffffffffffffffffffffffffffffffffffff1673ffffffffffffffffffffffffffffffffffffffff1681526020019081526020015f205f85600381111561171c5761171b6127b2565b5b600381111561172e5761172d6127b2565b5b81526020019081526020015f205f6101000a81548160ff0219169083151502179055505f60075f81546117609061343f565b91905081905590506040518060600160405280856003811115611786576117856127b2565b5b815260200142815260200184815250600b5f8381526020019081526020015f205f820151815f015f6101000a81548160ff021916908360038111156117ce576117cd6127b2565b5b02179055506020820151816001015560408201518160020155905050600c5f8673ffffffffffffffffffffffffffffffffffffffff1673ffffffffffffffffffffffffffffffffffffffff1681526020019081526020015f2081908060018154018082558091505060019003905f5260205f20015f9091909190915055611855858261204b565b8473ffffffffffffffffffffffffffffffffffffffff167f5716925f2a990bb51e5354134a606547c86dc787be1a2729eef575fd0c2bea1e828660405161189d929190613486565b60405180910390a2809150509392505050565b5f7f01ffc9a7000000000000000000000000000000000000000000000000000000007bffffffffffffffffffffffffffffffffffffffffffffffffffffffff1916827bffffffffffffffffffffffffffffffffffffffffffffffffffffffff1916149050919050565b5f5f61192483611f81565b90505f73ffffffffffffffffffffffffffffffffffffffff168173ffffffffffffffffffffffffffffffffffffffff160361199657826040517f7e27328900000000000000000000000000000000000000000000000000000000815260040161198d919061297a565b60405180910390fd5b80915050919050565b5f60045f8381526020019081526020015f205f9054906101000a900473ffffffffffffffffffffffffffffffffffffffff169050919050565b5f33905090565b6119ec8383836001612068565b505050565b5f5f6119fc84611f81565b90505f73ffffffffffffffffffffffffffffffffffffffff168373ffffffffffffffffffffffffffffffffffffffff1614611a3d57611a3c818486612227565b5b5f73ffffffffffffffffffffffffffffffffffffffff168173ffffffffffffffffffffffffffffffffffffffff1614611ac857611a7c5f855f5f612068565b600160035f8373ffffffffffffffffffffffffffffffffffffffff1673ffffffffffffffffffffffffffffffffffffffff1681526020019081526020015f205f82825403925050819055505b5f73ffffffffffffffffffffffffffffffffffffffff168573ffffffffffffffffffffffffffffffffffffffff1614611b4757600160035f8773ffffffffffffffffffffffffffffffffffffffff1673ffffffffffffffffffffffffffffffffffffffff1681526020019081526020015f205f82825401925050819055505b8460025f8681526020019081526020015f205f6101000a81548173ffffffffffffffffffffffffffffffffffffffff021916908373ffffffffffffffffffffffffffffffffffffffff160217905550838573ffffffffffffffffffffffffffffffffffffffff168273ffffffffffffffffffffffffffffffffffffffff167fddf252ad1be2c89b69c2b068fc378daa952ba7f163c4a11628f55a4df523b3ef60405160405180910390a4809150509392505050565b5f73ffffffffffffffffffffffffffffffffffffffff168373ffffffffffffffffffffffffffffffffffffffff1603611c6c575f6040517fa9fbf51f000000000000000000000000000000000000000000000000000000008152600401611c6391906126e1565b60405180910390fd5b5f73ffffffffffffffffffffffffffffffffffffffff168273ffffffffffffffffffffffffffffffffffffffff1603611cdc57816040517f5b08ba18000000000000000000000000000000000000000000000000000000008152600401611cd391906126e1565b60405180910390fd5b8060055f8573ffffffffffffffffffffffffffffffffffffffff1673ffffffffffffffffffffffffffffffffffffffff1681526020019081526020015f205f8473ffffffffffffffffffffffffffffffffffffffff1673ffffffffffffffffffffffffffffffffffffffff1681526020019081526020015f205f6101000a81548160ff0219169083151502179055508173ffffffffffffffffffffffffffffffffffffffff168373ffffffffffffffffffffffffffffffffffffffff167f17307eab39ab6107e8899845ad3d59bd9653f200f220920489ca2b5937696c3183604051611dc8919061259b565b60405180910390a3505050565b5f8373ffffffffffffffffffffffffffffffffffffffff163b1115611f7a578273ffffffffffffffffffffffffffffffffffffffff1663150b7a02868685856040518563ffffffff1660e01b8152600401611e3394939291906134ff565b6020604051808303815f875af1925050508015611e6e57506040513d601f19601f82011682018060405250810190611e6b919061355d565b60015b611eef573d805f8114611e9c576040519150601f19603f3d011682016040523d82523d5f602084013e611ea1565b606091505b505f815103611ee757836040517f64a0ae92000000000000000000000000000000000000000000000000000000008152600401611ede91906126e1565b60405180910390fd5b805160208201fd5b63150b7a0260e01b7bffffffffffffffffffffffffffffffffffffffffffffffffffffffff1916817bffffffffffffffffffffffffffffffffffffffffffffffffffffffff191614611f7857836040517f64a0ae92000000000000000000000000000000000000000000000000000000008152600401611f6f91906126e1565b60405180910390fd5b505b5050505050565b5f60025f8381526020019081526020015f205f9054906101000a900473ffffffffffffffffffffffffffffffffffffffff169050919050565b60065f9054906101000a900473ffffffffffffffffffffffffffffffffffffffff1673ffffffffffffffffffffffffffffffffffffffff163373ffffffffffffffffffffffffffffffffffffffff1614612049576040517f08c379a0000000000000000000000000000000000000000000000000000000008152600401612040906135d2565b60405180910390fd5b565b612064828260405180602001604052805f8152506122ea565b5050565b80806120a057505f73ffffffffffffffffffffffffffffffffffffffff168273ffffffffffffffffffffffffffffffffffffffff1614155b156121d2575f6120af84611919565b90505f73ffffffffffffffffffffffffffffffffffffffff168373ffffffffffffffffffffffffffffffffffffffff161415801561211957508273ffffffffffffffffffffffffffffffffffffffff168173ffffffffffffffffffffffffffffffffffffffff1614155b801561212c575061212a81846111d6565b155b1561216e57826040517fa9fbf51f00000000000000000000000000000000000000000000000000000000815260040161216591906126e1565b60405180910390fd5b81156121d057838573ffffffffffffffffffffffffffffffffffffffff168273ffffffffffffffffffffffffffffffffffffffff167f8c5be1e5ebec7d5bd14f71427d1e84f3dd0314c0f7b2291e5b200ac8c7c3b92560405160405180910390a45b505b8360045f8581526020019081526020015f205f6101000a81548173ffffffffffffffffffffffffffffffffffffffff021916908373ffffffffffffffffffffffffffffffffffffffff16021790555050505050565b61223283838361230d565b6122e5575f73ffffffffffffffffffffffffffffffffffffffff168373ffffffffffffffffffffffffffffffffffffffff16036122a657806040517f7e27328900000000000000000000000000000000000000000000000000000000815260040161229d919061297a565b60405180910390fd5b81816040517f177e802f0000000000000000000000000000000000000000000000000000000081526004016122dc9291906135f0565b60405180910390fd5b505050565b6122f483836123cd565b6123086122ff6119d8565b5f858585611dd5565b505050565b5f5f73ffffffffffffffffffffffffffffffffffffffff168373ffffffffffffffffffffffffffffffffffffffff16141580156123c457508273ffffffffffffffffffffffffffffffffffffffff168473ffffffffffffffffffffffffffffffffffffffff161480612385575061238484846111d6565b5b806123c357508273ffffffffffffffffffffffffffffffffffffffff166123ab8361199f565b73ffffffffffffffffffffffffffffffffffffffff16145b5b90509392505050565b5f73ffffffffffffffffffffffffffffffffffffffff168273ffffffffffffffffffffffffffffffffffffffff160361243d575f6040517f64a0ae9200000000000000000000000000000000000000000000000000000000815260040161243491906126e1565b60405180910390fd5b5f61244983835f6119f1565b90505f73ffffffffffffffffffffffffffffffffffffffff168173ffffffffffffffffffffffffffffffffffffffff16146124bb575f6040517f73c6ac6e0000000000000000000000000000000000000000000000000000000081526004016124b291906126e1565b60405180910390fd5b505050565b60405180606001604052805f60038111156124de576124dd6127b2565b5b81526020015f81526020015f81525090565b5f604051905090565b5f5ffd5b5f5ffd5b5f7fffffffff0000000000000000000000000000000000000000000000000000000082169050919050565b61253581612501565b811461253f575f5ffd5b50565b5f813590506125508161252c565b92915050565b5f6020828403121561256b5761256a6124f9565b5b5f61257884828501612542565b91505092915050565b5f8115159050919050565b61259581612581565b82525050565b5f6020820190506125ae5f83018461258c565b92915050565b5f81519050919050565b5f82825260208201905092915050565b8281835e5f83830152505050565b5f601f19601f8301169050919050565b5f6125f6826125b4565b61260081856125be565b93506126108185602086016125ce565b612619816125dc565b840191505092915050565b5f6020820190508181035f83015261263c81846125ec565b905092915050565b5f819050919050565b61265681612644565b8114612660575f5ffd5b50565b5f813590506126718161264d565b92915050565b5f6020828403121561268c5761268b6124f9565b5b5f61269984828501612663565b91505092915050565b5f73ffffffffffffffffffffffffffffffffffffffff82169050919050565b5f6126cb826126a2565b9050919050565b6126db816126c1565b82525050565b5f6020820190506126f45f8301846126d2565b92915050565b612703816126c1565b811461270d575f5ffd5b50565b5f8135905061271e816126fa565b92915050565b5f5f6040838503121561273a576127396124f9565b5b5f61274785828601612710565b925050602061275885828601612663565b9150509250929050565b5f5f5f60608486031215612779576127786124f9565b5b5f61278686828701612710565b935050602061279786828701612710565b92505060406127a886828701612663565b9150509250925092565b7f4e487b71000000000000000000000000000000000000000000000000000000005f52602160045260245ffd5b600481106127f0576127ef6127b2565b5b50565b5f819050612800826127df565b919050565b5f61280f826127f3565b9050919050565b61281f81612805565b82525050565b61282e81612644565b82525050565b5f6060820190506128475f830186612816565b6128546020830185612825565b6128616040830184612825565b949350505050565b5f5ffd5b5f5ffd5b5f5ffd5b5f5f83601f84011261288a57612889612869565b5b8235905067ffffffffffffffff8111156128a7576128a661286d565b5b6020830191508360018202830111156128c3576128c2612871565b5b9250929050565b5f5f5f5f5f5f606087890312156128e4576128e36124f9565b5b5f87013567ffffffffffffffff811115612901576129006124fd565b5b61290d89828a01612875565b9650965050602087013567ffffffffffffffff8111156129305761292f6124fd565b5b61293c89828a01612875565b9450945050604087013567ffffffffffffffff81111561295f5761295e6124fd565b5b61296b89828a01612875565b92509250509295509295509295565b5f60208201905061298d5f830184612825565b92915050565b5f602082840312156129a8576129a76124f9565b5b5f6129b584828501612710565b91505092915050565b5f81519050919050565b5f82825260208201905092915050565b5f819050602082019050919050565b6129f081612644565b82525050565b5f612a0183836129e7565b60208301905092915050565b5f602082019050919050565b5f612a23826129be565b612a2d81856129c8565b9350612a38836129d8565b805f5b83811015612a68578151612a4f88826129f6565b9750612a5a83612a0d565b925050600181019050612a3b565b5085935050505092915050565b5f6020820190508181035f830152612a8d8184612a19565b905092915050565b612a9e81612581565b8114612aa8575f5ffd5b50565b5f81359050612ab981612a95565b92915050565b5f5f60408385031215612ad557612ad46124f9565b5b5f612ae285828601612710565b9250506020612af385828601612aab565b9150509250929050565b612b0681612805565b82525050565b606082015f820151612b205f850182612afd565b506020820151612b3360208501826129e7565b506040820151612b4660408501826129e7565b50505050565b5f606082019050612b5f5f830184612b0c565b92915050565b5f5ffd5b7f4e487b71000000000000000000000000000000000000000000000000000000005f52604160045260245ffd5b612b9f826125dc565b810181811067ffffffffffffffff82111715612bbe57612bbd612b69565b5b80604052505050565b5f612bd06124f0565b9050612bdc8282612b96565b919050565b5f67ffffffffffffffff821115612bfb57612bfa612b69565b5b612c04826125dc565b9050602081019050919050565b828183375f83830152505050565b5f612c31612c2c84612be1565b612bc7565b905082815260208101848484011115612c4d57612c4c612b65565b5b612c58848285612c11565b509392505050565b5f82601f830112612c7457612c73612869565b5b8135612c84848260208601612c1f565b91505092915050565b5f5f5f5f60808587031215612ca557612ca46124f9565b5b5f612cb287828801612710565b9450506020612cc387828801612710565b9350506040612cd487828801612663565b925050606085013567ffffffffffffffff811115612cf557612cf46124fd565b5b612d0187828801612c60565b91505092959194509250565b60048110612d19575f5ffd5b50565b5f81359050612d2a81612d0d565b92915050565b5f5f60408385031215612d4657612d456124f9565b5b5f612d5385828601612710565b9250506020612d6485828601612d1c565b9150509250929050565b5f5f60408385031215612d8457612d836124f9565b5b5f612d9185828601612710565b9250506020612da285828601612710565b9150509250929050565b5f5f5f60608486031215612dc357612dc26124f9565b5b5f612dd086828701612710565b9350506020612de186828701612d1c565b9250506040612df286828701612663565b9150509250925092565b7f4e487b71000000000000000000000000000000000000000000000000000000005f52602260045260245ffd5b5f6002820490506001821680612e4057607f821691505b602082108103612e5357612e52612dfc565b5b50919050565b5f606082019050612e6c5f8301866126d2565b612e796020830185612825565b612e8660408301846126d2565b949350505050565b5f82905092915050565b5f819050815f5260205f209050919050565b5f6020601f8301049050919050565b5f82821b905092915050565b5f60088302612ef47fffffffffffffffffffffffffffffffffffffffffffffffffffffffffffffffff82612eb9565b612efe8683612eb9565b95508019841693508086168417925050509392505050565b5f819050919050565b5f612f39612f34612f2f84612644565b612f16565b612644565b9050919050565b5f819050919050565b612f5283612f1f565b612f66612f5e82612f40565b848454612ec5565b825550505050565b5f5f905090565b612f7d612f6e565b612f88818484612f49565b505050565b5b81811015612fab57612fa05f82612f75565b600181019050612f8e565b5050565b601f821115612ff057612fc181612e98565b612fca84612eaa565b81016020851015612fd9578190505b612fed612fe585612eaa565b830182612f8d565b50505b505050565b5f82821c905092915050565b5f6130105f1984600802612ff5565b1980831691505092915050565b5f6130288383613001565b9150826002028217905092915050565b6130428383612e8e565b67ffffffffffffffff81111561305b5761305a612b69565b5b6130658254612e29565b613070828285612faf565b5f601f83116001811461309d575f841561308b578287013590505b613095858261301d565b8655506130fc565b601f1984166130ab86612e98565b5f5b828110156130d2578489013582556001820191506020850194506020810190506130ad565b868310156130ef57848901356130eb601f891682613001565b8355505b6001600288020188555050505b50505050505050565b7f436f726520616c726561647920736574000000000000000000000000000000005f82015250565b5f6131396010836125be565b915061314482613105565b602082019050919050565b5f6020820190508181035f8301526131668161312d565b9050919050565b7f5a65726f206164647265737300000000000000000000000000000000000000005f82015250565b5f6131a1600c836125be565b91506131ac8261316d565b602082019050919050565b5f6020820190508181035f8301526131ce81613195565b9050919050565b7f546f6b656e20646f6573206e6f742065786973740000000000000000000000005f82015250565b5f6132096014836125be565b9150613214826131d5565b602082019050919050565b5f6020820190508181035f830152613236816131fd565b9050919050565b7f4e6f7420746f6b656e206f776e657200000000000000000000000000000000005f82015250565b5f613271600f836125be565b915061327c8261323d565b602082019050919050565b5f6020820190508181035f83015261329e81613265565b9050919050565b7f416c7265616479206174206d61782074696572000000000000000000000000005f82015250565b5f6132d96013836125be565b91506132e4826132a5565b602082019050919050565b5f6020820190508181035f830152613306816132cd565b9050919050565b7f5469657220616c7265616479206d696e746564000000000000000000000000005f82015250565b5f6133416013836125be565b915061334c8261330d565b602082019050919050565b5f6020820190508181035f83015261336e81613335565b9050919050565b5f6060820190506133885f830186612825565b6133956020830185612816565b6133a26040830184612816565b949350505050565b7f4e6f7420656c696769626c6500000000000000000000000000000000000000005f82015250565b5f6133de600c836125be565b91506133e9826133aa565b602082019050919050565b5f6020820190508181035f83015261340b816133d2565b9050919050565b7f4e487b71000000000000000000000000000000000000000000000000000000005f52601160045260245ffd5b5f61344982612644565b91507fffffffffffffffffffffffffffffffffffffffffffffffffffffffffffffffff820361347b5761347a613412565b5b600182019050919050565b5f6040820190506134995f830185612825565b6134a66020830184612816565b9392505050565b5f81519050919050565b5f82825260208201905092915050565b5f6134d1826134ad565b6134db81856134b7565b93506134eb8185602086016125ce565b6134f4816125dc565b840191505092915050565b5f6080820190506135125f8301876126d2565b61351f60208301866126d2565b61352c6040830185612825565b818103606083015261353e81846134c7565b905095945050505050565b5f815190506135578161252c565b92915050565b5f60208284031215613572576135716124f9565b5b5f61357f84828501613549565b91505092915050565b7f4e6f7420436f72650000000000000000000000000000000000000000000000005f82015250565b5f6135bc6008836125be565b91506135c782613588565b602082019050919050565b5f6020820190508181035f8301526135e9816135b0565b9050919050565b5f6040820190506136035f8301856126d2565b6136106020830184612825565b939250505056fea2646970667358221220fd172d6943142234b36266097a5b982c8c5c5c28d6382b5ef82398e7bc8120d164736f6c634300081e0033","linkReferences":{}},"methodIdentifiers":{"approve(address,uint256)":"095ea7b3","balanceOf(address)":"70a08231","bronzeURI()":"9745107c","core()":"f2f4eb26","getApproved(uint256)":"081812fc","getNftMetadata(uint256)":"ad27314b","getUserNfts(address)":"7908d009","goldURI()":"95a277d1","isApprovedForAll(address,address)":"e985e9c5","mintNft(address,uint8,uint256)":"f944c31c","name()":"06fdde03","nftMetadata(uint256)":"49541015","ownerOf(uint256)":"6352211e","safeTransferFrom(address,address,uint256)":"42842e0e","safeTransferFrom(address,address,uint256,bytes)":"b88d4fde","setApprovalForAll(address,bool)":"a22cb465","setCore(address)":"80009630","setUris(string,string,string)":"540572d0","silverURI()":"c2fa333e","supportsInterface(bytes4)":"01ffc9a7","symbol()":"95d89b41","tierMinted(address,uint8)":"d8c0e5c9","tokenCounter()":"d082e381","tokenURI(uint256)":"c87b56dd","transferFrom(address,address,uint256)":"23b872dd","upgradeNft(address,uint256)":"e9cb499b","userNfts(address,uint256)":"69b262b6"},"id":39}